{
  "contractName": "DataTokenTemplate",
  "abi": [
    {
      "constant": false,
      "inputs": [
        {
          "name": "spender",
          "type": "address"
        },
        {
          "name": "amount",
          "type": "uint256"
        }
      ],
      "name": "approve",
      "outputs": [
        {
          "name": "",
          "type": "bool"
        }
      ],
      "payable": false,
      "stateMutability": "nonpayable",
      "type": "function"
    },
    {
      "constant": true,
      "inputs": [],
      "name": "totalSupply",
      "outputs": [
        {
          "name": "",
          "type": "uint256"
        }
      ],
      "payable": false,
      "stateMutability": "view",
      "type": "function"
    },
    {
      "constant": false,
      "inputs": [
        {
          "name": "sender",
          "type": "address"
        },
        {
          "name": "recipient",
          "type": "address"
        },
        {
          "name": "amount",
          "type": "uint256"
        }
      ],
      "name": "transferFrom",
      "outputs": [
        {
          "name": "",
          "type": "bool"
        }
      ],
      "payable": false,
      "stateMutability": "nonpayable",
      "type": "function"
    },
    {
      "constant": false,
      "inputs": [
        {
          "name": "spender",
          "type": "address"
        },
        {
          "name": "addedValue",
          "type": "uint256"
        }
      ],
      "name": "increaseAllowance",
      "outputs": [
        {
          "name": "",
          "type": "bool"
        }
      ],
      "payable": false,
      "stateMutability": "nonpayable",
      "type": "function"
    },
    {
      "constant": true,
      "inputs": [
        {
          "name": "account",
          "type": "address"
        }
      ],
      "name": "balanceOf",
      "outputs": [
        {
          "name": "",
          "type": "uint256"
        }
      ],
      "payable": false,
      "stateMutability": "view",
      "type": "function"
    },
    {
      "constant": false,
      "inputs": [
        {
          "name": "spender",
          "type": "address"
        },
        {
          "name": "subtractedValue",
          "type": "uint256"
        }
      ],
      "name": "decreaseAllowance",
      "outputs": [
        {
          "name": "",
          "type": "bool"
        }
      ],
      "payable": false,
      "stateMutability": "nonpayable",
      "type": "function"
    },
    {
      "constant": false,
      "inputs": [
        {
          "name": "recipient",
          "type": "address"
        },
        {
          "name": "amount",
          "type": "uint256"
        }
      ],
      "name": "transfer",
      "outputs": [
        {
          "name": "",
          "type": "bool"
        }
      ],
      "payable": false,
      "stateMutability": "nonpayable",
      "type": "function"
    },
    {
      "constant": true,
      "inputs": [],
      "name": "USAGE_FEE",
      "outputs": [
        {
          "name": "",
          "type": "uint256"
        }
      ],
      "payable": false,
      "stateMutability": "view",
      "type": "function"
    },
    {
      "constant": true,
      "inputs": [
        {
          "name": "owner",
          "type": "address"
        },
        {
          "name": "spender",
          "type": "address"
        }
      ],
      "name": "allowance",
      "outputs": [
        {
          "name": "",
          "type": "uint256"
        }
      ],
      "payable": false,
      "stateMutability": "view",
      "type": "function"
    },
    {
      "constant": true,
      "inputs": [],
      "name": "BASE",
      "outputs": [
        {
          "name": "",
          "type": "uint256"
        }
      ],
      "payable": false,
      "stateMutability": "view",
      "type": "function"
    },
    {
      "inputs": [
        {
          "name": "name",
          "type": "string"
        },
        {
          "name": "symbol",
          "type": "string"
        },
        {
          "name": "minterAddress",
          "type": "address"
        },
        {
          "name": "cap",
          "type": "uint256"
        },
        {
          "name": "initialSupply",
          "type": "uint256"
        },
        {
          "name": "proof",
          "type": "string"
        }
      ],
      "payable": false,
      "stateMutability": "nonpayable",
      "type": "constructor"
    },
    {
      "anonymous": false,
      "inputs": [
        {
          "indexed": false,
          "name": "key",
          "type": "uint256"
        },
        {
          "indexed": false,
          "name": "value",
          "type": "bytes32"
        }
      ],
      "name": "SetJusticeInfo",
      "type": "event"
    },
    {
      "anonymous": false,
      "inputs": [
        {
          "indexed": true,
          "name": "exchangeId",
          "type": "uint256"
        },
        {
          "indexed": true,
          "name": "exchangeUser",
          "type": "address"
        },
        {
          "indexed": true,
          "name": "exchangeUserAgency",
          "type": "address"
        },
        {
          "indexed": false,
          "name": "value",
          "type": "uint256"
        }
      ],
      "name": "ExchangeFreeze",
      "type": "event"
    },
    {
      "anonymous": false,
      "inputs": [
        {
          "indexed": true,
          "name": "exchangeId",
          "type": "uint256"
        },
        {
          "indexed": true,
          "name": "exchangeUser",
          "type": "address"
        },
        {
          "indexed": true,
          "name": "exchangeUserAgency",
          "type": "address"
        }
      ],
      "name": "ExchangeCommit",
      "type": "event"
    },
    {
      "anonymous": false,
      "inputs": [
        {
          "indexed": true,
          "name": "exchangeId",
          "type": "uint256"
        },
        {
          "indexed": true,
          "name": "exchangeUser",
          "type": "address"
        },
        {
          "indexed": true,
          "name": "exchangeUserAgency",
          "type": "address"
        }
      ],
      "name": "ExchangeRollback",
      "type": "event"
    },
    {
      "anonymous": false,
      "inputs": [
        {
          "indexed": true,
          "name": "exchangeId",
          "type": "uint256"
        },
        {
          "indexed": true,
          "name": "exchangeUser",
          "type": "address"
        },
        {
          "indexed": true,
          "name": "exchangeUserAgency",
          "type": "address"
        },
        {
          "indexed": false,
          "name": "value",
          "type": "uint256"
        }
      ],
      "name": "ExchangeSettle",
      "type": "event"
    },
    {
      "anonymous": false,
      "inputs": [
        {
          "indexed": true,
          "name": "from",
          "type": "address"
        },
        {
          "indexed": true,
          "name": "to",
          "type": "address"
        },
        {
          "indexed": false,
          "name": "value",
          "type": "uint256"
        }
      ],
      "name": "Transfer",
      "type": "event"
    },
    {
      "anonymous": false,
      "inputs": [
        {
          "indexed": true,
          "name": "owner",
          "type": "address"
        },
        {
          "indexed": true,
          "name": "spender",
          "type": "address"
        },
        {
          "indexed": false,
          "name": "value",
          "type": "uint256"
        }
      ],
      "name": "Approval",
      "type": "event"
    },
    {
      "constant": false,
      "inputs": [
        {
          "name": "name",
          "type": "string"
        },
        {
          "name": "symbol",
          "type": "string"
        },
        {
          "name": "minterAddress",
          "type": "address"
        },
        {
          "name": "cap",
          "type": "uint256"
        },
        {
          "name": "initialSupply",
          "type": "uint256"
        },
        {
          "name": "proof",
          "type": "string"
        }
      ],
      "name": "initialize",
      "outputs": [
        {
          "name": "",
          "type": "bool"
        }
      ],
      "payable": false,
      "stateMutability": "nonpayable",
      "type": "function"
    },
    {
      "constant": false,
      "inputs": [
        {
          "name": "account",
          "type": "address"
        },
        {
          "name": "value",
          "type": "uint256"
        }
      ],
      "name": "mint",
      "outputs": [],
      "payable": false,
      "stateMutability": "nonpayable",
      "type": "function"
    },
    {
      "constant": true,
      "inputs": [],
      "name": "name",
      "outputs": [
        {
          "name": "",
          "type": "string"
        }
      ],
      "payable": false,
      "stateMutability": "view",
      "type": "function"
    },
    {
      "constant": true,
      "inputs": [],
      "name": "symbol",
      "outputs": [
        {
          "name": "",
          "type": "string"
        }
      ],
      "payable": false,
      "stateMutability": "view",
      "type": "function"
    },
    {
      "constant": true,
      "inputs": [],
      "name": "proof",
      "outputs": [
        {
          "name": "",
          "type": "string"
        }
      ],
      "payable": false,
      "stateMutability": "view",
      "type": "function"
    },
    {
      "constant": true,
      "inputs": [],
      "name": "decimals",
      "outputs": [
        {
          "name": "",
          "type": "uint8"
        }
      ],
      "payable": false,
      "stateMutability": "view",
      "type": "function"
    },
    {
      "constant": true,
      "inputs": [],
      "name": "cap",
      "outputs": [
        {
          "name": "",
          "type": "uint256"
        }
      ],
      "payable": false,
      "stateMutability": "view",
      "type": "function"
    },
    {
      "constant": true,
      "inputs": [
        {
          "name": "account",
          "type": "address"
        }
      ],
      "name": "isMinter",
      "outputs": [
        {
          "name": "",
          "type": "bool"
        }
      ],
      "payable": false,
      "stateMutability": "view",
      "type": "function"
    },
    {
      "constant": true,
      "inputs": [],
      "name": "minter",
      "outputs": [
        {
          "name": "",
          "type": "address"
        }
      ],
      "payable": false,
      "stateMutability": "view",
      "type": "function"
    },
    {
      "constant": true,
      "inputs": [],
      "name": "isInitialized",
      "outputs": [
        {
          "name": "",
          "type": "bool"
        }
      ],
      "payable": false,
      "stateMutability": "view",
      "type": "function"
    },
    {
      "constant": true,
      "inputs": [],
      "name": "justice",
      "outputs": [
        {
          "name": "",
          "type": "string"
        }
      ],
      "payable": false,
      "stateMutability": "view",
      "type": "function"
    },
    {
      "constant": false,
      "inputs": [
        {
          "name": "oneJustice",
          "type": "string"
        }
      ],
      "name": "setJustice",
      "outputs": [],
      "payable": false,
      "stateMutability": "nonpayable",
      "type": "function"
    },
    {
      "constant": false,
      "inputs": [
        {
          "name": "key",
          "type": "uint256"
        },
        {
          "name": "value",
          "type": "bytes32"
        }
      ],
      "name": "setJusticeInfo",
      "outputs": [],
      "payable": false,
      "stateMutability": "nonpayable",
      "type": "function"
    },
    {
      "constant": false,
      "inputs": [
        {
          "name": "userAgency",
          "type": "address"
        }
      ],
      "name": "freezeExchange",
      "outputs": [
        {
          "name": "",
          "type": "uint256"
        }
      ],
      "payable": false,
      "stateMutability": "nonpayable",
      "type": "function"
    },
    {
      "constant": true,
      "inputs": [
        {
          "name": "exchangeId",
          "type": "uint256"
        }
      ],
      "name": "verifyFreezeExchange",
      "outputs": [
        {
          "name": "",
          "type": "bool"
        }
      ],
      "payable": false,
      "stateMutability": "view",
      "type": "function"
    },
    {
      "constant": false,
      "inputs": [
        {
          "name": "exchangeId",
          "type": "uint256"
        }
      ],
      "name": "commitExchange",
      "outputs": [
        {
          "name": "",
          "type": "bool"
        }
      ],
      "payable": false,
      "stateMutability": "nonpayable",
      "type": "function"
    },
    {
      "constant": false,
      "inputs": [
        {
          "name": "exchangeId",
          "type": "uint256"
        }
      ],
      "name": "rollbackExchange",
      "outputs": [
        {
          "name": "",
          "type": "bool"
        }
      ],
      "payable": false,
      "stateMutability": "nonpayable",
      "type": "function"
    },
    {
      "constant": false,
      "inputs": [
        {
          "name": "exchangeId",
          "type": "uint256"
        }
      ],
      "name": "settleExchange",
      "outputs": [
        {
          "name": "",
          "type": "bool"
        }
      ],
      "payable": false,
      "stateMutability": "nonpayable",
      "type": "function"
    },
    {
      "constant": true,
      "inputs": [
        {
          "name": "exchangeId",
          "type": "uint256"
        }
      ],
      "name": "exchangeState",
      "outputs": [
        {
          "name": "",
          "type": "uint256"
        }
      ],
      "payable": false,
      "stateMutability": "view",
      "type": "function"
    }
  ],
  "bytecode": "0x60806040526000600860006101000a81548160ff0219169083151502179055503480156200002c57600080fd5b5060405162003f9a38038062003f9a833981018060405260c08110156200005257600080fd5b8101908080516401000000008111156200006b57600080fd5b828101905060208101848111156200008257600080fd5b8151856001820283011164010000000082111715620000a057600080fd5b50509291906020018051640100000000811115620000bd57600080fd5b82810190506020810184811115620000d457600080fd5b8151856001820283011164010000000082111715620000f257600080fd5b505092919060200180519060200190929190805190602001909291908051906020019092919080516401000000008111156200012d57600080fd5b828101905060208101848111156200014457600080fd5b81518560018202830111640100000000821117156200016257600080fd5b5050929190505050620001808686868686866200018d60201b60201c565b5050505050505062000764565b60008073ffffffffffffffffffffffffffffffffffffffff168573ffffffffffffffffffffffffffffffffffffffff16141562000216576040517f08c379a000000000000000000000000000000000000000000000000000000000815260040180806020018281038252603081526020018062003ee96030913960400191505060405180910390fd5b600073ffffffffffffffffffffffffffffffffffffffff16600860019054906101000a900473ffffffffffffffffffffffffffffffffffffffff1673ffffffffffffffffffffffffffffffffffffffff1614620002bf576040517f08c379a000000000000000000000000000000000000000000000000000000000815260040180806020018281038252602f81526020018062003f3d602f913960400191505060405180910390fd5b60008414156200031b576040517f08c379a000000000000000000000000000000000000000000000000000000000815260040180806020018281038252602481526020018062003f196024913960400191505060405180910390fd5b600083141562000377576040517f08c379a000000000000000000000000000000000000000000000000000000000815260040180806020018281038252602e81526020018062003f6c602e913960400191505060405180910390fd5b836006819055508260078190555086600390805190602001906200039d929190620006b5565b508160059080519060200190620003b6929190620006b5565b508560049080519060200190620003cf929190620006b5565b5084600860016101000a81548173ffffffffffffffffffffffffffffffffffffffff021916908373ffffffffffffffffffffffffffffffffffffffff1602179055506200042385846200046260201b60201c565b6001600860006101000a81548160ff0219169083151502179055506000600a81905550600860009054906101000a900460ff1690509695505050505050565b600073ffffffffffffffffffffffffffffffffffffffff168273ffffffffffffffffffffffffffffffffffffffff16141562000506576040517f08c379a000000000000000000000000000000000000000000000000000000000815260040180806020018281038252601f8152602001807f45524332303a206d696e7420746f20746865207a65726f20616464726573730081525060200191505060405180910390fd5b62000522816002546200062c60201b62002eee1790919060201c565b60028190555062000580816000808573ffffffffffffffffffffffffffffffffffffffff1673ffffffffffffffffffffffffffffffffffffffff168152602001908152602001600020546200062c60201b62002eee1790919060201c565b6000808473ffffffffffffffffffffffffffffffffffffffff1673ffffffffffffffffffffffffffffffffffffffff168152602001908152602001600020819055508173ffffffffffffffffffffffffffffffffffffffff16600073ffffffffffffffffffffffffffffffffffffffff167fddf252ad1be2c89b69c2b068fc378daa952ba7f163c4a11628f55a4df523b3ef836040518082815260200191505060405180910390a35050565b600080828401905083811015620006ab576040517f08c379a000000000000000000000000000000000000000000000000000000000815260040180806020018281038252601b8152602001807f536166654d6174683a206164646974696f6e206f766572666c6f77000000000081525060200191505060405180910390fd5b8091505092915050565b828054600181600116156101000203166002900490600052602060002090601f016020900481019282601f10620006f857805160ff191683800117855562000729565b8280016001018555821562000729579182015b82811115620007285782518255916020019190600101906200070b565b5b5090506200073891906200073c565b5090565b6200076191905b808211156200075d57600081600090555060010162000743565b5090565b90565b61377580620007746000396000f3fe608060405234801561001057600080fd5b50600436106101cf5760003560e01c806340c10f1911610104578063aa271e1a116100a2578063ec342ad011610071578063ec342ad014610b21578063f0ae81bd14610b3f578063f6459ee914610b77578063faf924cf14610bcf576101cf565b8063aa271e1a146109e9578063b4e34f7c14610a45578063d5b96c5314610a8b578063dd62ed3e14610aa9576101cf565b806395d89b41116100de57806395d89b411461085457806395debd43146108d7578063a457c2d71461091d578063a9059cbb14610983576101cf565b806340c10f191461063f5780634d4e8b461461068d57806370a08231146107fc576101cf565b8063313ce56711610171578063392e53cd1161014b578063392e53cd1461052f5780633950935114610551578063398e6fa5146105b75780633f29f772146105f9576101cf565b8063313ce56714610474578063355274ea14610498578063368ab50f146104b6576101cf565b80630d801335116101ad5780630d8013351461030757806318160ddd1461038a5780632104b29b146103a857806323b872dd146103ee576101cf565b806306fdde03146101d45780630754617214610257578063095ea7b3146102a1575b600080fd5b6101dc610c52565b6040518080602001828103825283818151815260200191508051906020019080838360005b8381101561021c578082015181840152602081019050610201565b50505050905090810190601f1680156102495780820380516001836020036101000a031916815260200191505b509250505060405180910390f35b61025f610cf4565b604051808273ffffffffffffffffffffffffffffffffffffffff1673ffffffffffffffffffffffffffffffffffffffff16815260200191505060405180910390f35b6102ed600480360360408110156102b757600080fd5b81019080803573ffffffffffffffffffffffffffffffffffffffff16906020019092919080359060200190929190505050610d1e565b604051808215151515815260200191505060405180910390f35b61030f610d3c565b6040518080602001828103825283818151815260200191508051906020019080838360005b8381101561034f578082015181840152602081019050610334565b50505050905090810190601f16801561037c5780820380516001836020036101000a031916815260200191505b509250505060405180910390f35b610392610dde565b6040518082815260200191505060405180910390f35b6103d4600480360360208110156103be57600080fd5b8101908080359060200190929190505050610de8565b604051808215151515815260200191505060405180910390f35b61045a6004803603606081101561040457600080fd5b81019080803573ffffffffffffffffffffffffffffffffffffffff169060200190929190803573ffffffffffffffffffffffffffffffffffffffff16906020019092919080359060200190929190505050611339565b604051808215151515815260200191505060405180910390f35b61047c611412565b604051808260ff1660ff16815260200191505060405180910390f35b6104a061141b565b6040518082815260200191505060405180910390f35b61052d600480360360208110156104cc57600080fd5b81019080803590602001906401000000008111156104e957600080fd5b8201836020820111156104fb57600080fd5b8035906020019184600183028401116401000000008311171561051d57600080fd5b9091929391929390505050611425565b005b6105376114e1565b604051808215151515815260200191505060405180910390f35b61059d6004803603604081101561056757600080fd5b81019080803573ffffffffffffffffffffffffffffffffffffffff169060200190929190803590602001909291905050506114f8565b604051808215151515815260200191505060405180910390f35b6105e3600480360360208110156105cd57600080fd5b81019080803590602001909291905050506115ab565b6040518082815260200191505060405180910390f35b6106256004803603602081101561060f57600080fd5b8101908080359060200190929190505050611694565b604051808215151515815260200191505060405180910390f35b61068b6004803603604081101561065557600080fd5b81019080803573ffffffffffffffffffffffffffffffffffffffff16906020019092919080359060200190929190505050611a26565b005b6107e2600480360360c08110156106a357600080fd5b81019080803590602001906401000000008111156106c057600080fd5b8201836020820111156106d257600080fd5b803590602001918460018302840111640100000000831117156106f457600080fd5b90919293919293908035906020019064010000000081111561071557600080fd5b82018360208201111561072757600080fd5b8035906020019184600183028401116401000000008311171561074957600080fd5b9091929391929390803573ffffffffffffffffffffffffffffffffffffffff16906020019092919080359060200190929190803590602001909291908035906020019064010000000081111561079e57600080fd5b8201836020820111156107b057600080fd5b803590602001918460018302840111640100000000831117156107d257600080fd5b9091929391929390505050611b6b565b604051808215151515815260200191505060405180910390f35b61083e6004803603602081101561081257600080fd5b81019080803573ffffffffffffffffffffffffffffffffffffffff169060200190929190505050611cbc565b6040518082815260200191505060405180910390f35b61085c611d04565b6040518080602001828103825283818151815260200191508051906020019080838360005b8381101561089c578082015181840152602081019050610881565b50505050905090810190601f1680156108c95780820380516001836020036101000a031916815260200191505b509250505060405180910390f35b610903600480360360208110156108ed57600080fd5b8101908080359060200190929190505050611da6565b604051808215151515815260200191505060405180910390f35b6109696004803603604081101561093357600080fd5b81019080803573ffffffffffffffffffffffffffffffffffffffff169060200190929190803590602001909291905050506122a7565b604051808215151515815260200191505060405180910390f35b6109cf6004803603604081101561099957600080fd5b81019080803573ffffffffffffffffffffffffffffffffffffffff16906020019092919080359060200190929190505050612374565b604051808215151515815260200191505060405180910390f35b610a2b600480360360208110156109ff57600080fd5b81019080803573ffffffffffffffffffffffffffffffffffffffff169060200190929190505050612392565b604051808215151515815260200191505060405180910390f35b610a7160048036036020811015610a5b57600080fd5b81019080803590602001909291905050506123ec565b604051808215151515815260200191505060405180910390f35b610a936124b0565b6040518082815260200191505060405180910390f35b610b0b60048036036040811015610abf57600080fd5b81019080803573ffffffffffffffffffffffffffffffffffffffff169060200190929190803573ffffffffffffffffffffffffffffffffffffffff1690602001909291905050506124bc565b6040518082815260200191505060405180910390f35b610b29612543565b6040518082815260200191505060405180910390f35b610b7560048036036040811015610b5557600080fd5b81019080803590602001909291908035906020019092919050505061254f565b005b610bb960048036036020811015610b8d57600080fd5b81019080803573ffffffffffffffffffffffffffffffffffffffff169060200190929190505050612638565b6040518082815260200191505060405180910390f35b610bd76128d7565b6040518080602001828103825283818151815260200191508051906020019080838360005b83811015610c17578082015181840152602081019050610bfc565b50505050905090810190601f168015610c445780820380516001836020036101000a031916815260200191505b509250505060405180910390f35b606060038054600181600116156101000203166002900480601f016020809104026020016040519081016040528092919081815260200182805460018160011615610100020316600290048015610cea5780601f10610cbf57610100808354040283529160200191610cea565b820191906000526020600020905b815481529060010190602001808311610ccd57829003601f168201915b5050505050905090565b6000600860019054906101000a900473ffffffffffffffffffffffffffffffffffffffff16905090565b6000610d32610d2b612979565b8484612981565b6001905092915050565b606060098054600181600116156101000203166002900480601f016020809104026020016040519081016040528092919081815260200182805460018160011615610100020316600290048015610dd45780601f10610da957610100808354040283529160200191610dd4565b820191906000526020600020905b815481529060010190602001808311610db757829003601f168201915b5050505050905090565b6000600254905090565b600080600c8054905090506000809050600080905060008090505b83811015610e3f5785600c8281548110610e1957fe5b90600052602060002001541415610e3257809150600192505b8080600101915050610e03565b5081610eb3576040517f08c379a00000000000000000000000000000000000000000000000000000000081526004018080602001828103825260138152602001807f696e76616c69642065786368616e67652069640000000000000000000000000081525060200191505060405180910390fd5b600b600086815260200190815260200160002060030160009054906101000a900460ff16610f49576040517f08c379a00000000000000000000000000000000000000000000000000000000081526004018080602001828103825260108152602001807f4e6f2066726f7a656e20616d6f756e740000000000000000000000000000000081525060200191505060405180910390fd5b600b600086815260200190815260200160002060010160009054906101000a900473ffffffffffffffffffffffffffffffffffffffff1673ffffffffffffffffffffffffffffffffffffffff163373ffffffffffffffffffffffffffffffffffffffff1614611020576040517f08c379a00000000000000000000000000000000000000000000000000000000081526004018080602001828103825260178152602001807f4f6e6c79206167656e63792063616e20646f207468697300000000000000000081525060200191505060405180910390fd5b600b600086815260200190815260200160002060030160019054906101000a900460ff166110b6576040517f08c379a00000000000000000000000000000000000000000000000000000000081526004018080602001828103825260168152602001807f6461746120686173206e6f74206265656e20757365640000000000000000000081525060200191505060405180910390fd5b6000600b600087815260200190815260200160002060030160006101000a81548160ff02191690831515021790555061112830600860019054906101000a900473ffffffffffffffffffffffffffffffffffffffff16600b600089815260200190815260200160002060020154612b78565b600b600086815260200190815260200160002060010160009054906101000a900473ffffffffffffffffffffffffffffffffffffffff1673ffffffffffffffffffffffffffffffffffffffff16600b600087815260200190815260200160002060000160009054906101000a900473ffffffffffffffffffffffffffffffffffffffff1673ffffffffffffffffffffffffffffffffffffffff16867f57b13829342df7d474fa4f7ab268e83316329fdbd6572b0f64780c88218966db600b60008a8152602001908152602001600020600201546040518082815260200191505060405180910390a460008190505b6001840381101561126457600c600182018154811061123157fe5b9060005260206000200154600c828154811061124957fe5b90600052602060002001819055508080600101915050611216565b50600c600184038154811061127557fe5b9060005260206000200160009055600c80548091906001900361129891906133f0565b50600b6000868152602001908152602001600020600080820160006101000a81549073ffffffffffffffffffffffffffffffffffffffff02191690556001820160006101000a81549073ffffffffffffffffffffffffffffffffffffffff021916905560028201600090556003820160006101000a81549060ff02191690556003820160016101000a81549060ff0219169055505060019350505050919050565b6000611346848484612b78565b61140784611352612979565b6114028560405180606001604052806028815260200161365760289139600160008b73ffffffffffffffffffffffffffffffffffffffff1673ffffffffffffffffffffffffffffffffffffffff16815260200190815260200160002060006113b8612979565b73ffffffffffffffffffffffffffffffffffffffff1673ffffffffffffffffffffffffffffffffffffffff16815260200190815260200160002054612e2e9092919063ffffffff16565b612981565b600190509392505050565b60006012905090565b6000600654905090565b600860019054906101000a900473ffffffffffffffffffffffffffffffffffffffff1673ffffffffffffffffffffffffffffffffffffffff163373ffffffffffffffffffffffffffffffffffffffff16146114cb576040517f08c379a00000000000000000000000000000000000000000000000000000000081526004018080602001828103825260218152602001806135bc6021913960400191505060405180910390fd5b8181600991906114dc92919061341c565b505050565b6000600860009054906101000a900460ff16905090565b60006115a1611505612979565b8461159c8560016000611516612979565b73ffffffffffffffffffffffffffffffffffffffff1673ffffffffffffffffffffffffffffffffffffffff16815260200190815260200160002060008973ffffffffffffffffffffffffffffffffffffffff1673ffffffffffffffffffffffffffffffffffffffff16815260200190815260200160002054612eee90919063ffffffff16565b612981565b6001905092915050565b6000806000600c8054905090506000809050600080905060008090505b838110156116045786600c82815481106115de57fe5b906000526020600020015414156115f757809150600192505b80806001019150506115c8565b5081611613576000935061167d565b600b600087815260200190815260200160002060030160009054906101000a900460ff161561167757600b600087815260200190815260200160002060030160019054906101000a900460ff1661166d5760019350611672565b600293505b61167c565b600393505b5b83600381111561168957fe5b945050505050919050565b600080600c805490509050600080905060008090505b828110156116e35784600c82815481106116c057fe5b906000526020600020015414156116d657600191505b80806001019150506116aa565b5080611757576040517f08c379a00000000000000000000000000000000000000000000000000000000081526004018080602001828103825260138152602001807f696e76616c69642065786368616e67652069640000000000000000000000000081525060200191505060405180910390fd5b600b600085815260200190815260200160002060030160009054906101000a900460ff166117ed576040517f08c379a00000000000000000000000000000000000000000000000000000000081526004018080602001828103825260108152602001807f4e6f2066726f7a656e20616d6f756e740000000000000000000000000000000081525060200191505060405180910390fd5b600b600085815260200190815260200160002060010160009054906101000a900473ffffffffffffffffffffffffffffffffffffffff1673ffffffffffffffffffffffffffffffffffffffff163373ffffffffffffffffffffffffffffffffffffffff16146118c4576040517f08c379a00000000000000000000000000000000000000000000000000000000081526004018080602001828103825260178152602001807f4f6e6c79206167656e63792063616e20646f207468697300000000000000000081525060200191505060405180910390fd5b600b600085815260200190815260200160002060030160019054906101000a900460ff161561195b576040517f08c379a00000000000000000000000000000000000000000000000000000000081526004018080602001828103825260128152602001807f6461746120686173206265656e2075736564000000000000000000000000000081525060200191505060405180910390fd5b6001600b600086815260200190815260200160002060030160016101000a81548160ff0219169083151502179055503373ffffffffffffffffffffffffffffffffffffffff16600b600086815260200190815260200160002060000160009054906101000a900473ffffffffffffffffffffffffffffffffffffffff1673ffffffffffffffffffffffffffffffffffffffff16857f5ce71c80953b0a7055e23d31c77325562b85730ea9891461516235ede238e31a60405160405180910390a4600192505050919050565b600860019054906101000a900473ffffffffffffffffffffffffffffffffffffffff1673ffffffffffffffffffffffffffffffffffffffff163373ffffffffffffffffffffffffffffffffffffffff1614611acc576040517f08c379a00000000000000000000000000000000000000000000000000000000081526004018080602001828103825260218152602001806135bc6021913960400191505060405180910390fd5b600654611ae982611adb610dde565b612eee90919063ffffffff16565b1115611b5d576040517f08c379a000000000000000000000000000000000000000000000000000000000815260040180806020018281038252601f8152602001807f44617461546f6b656e54656d706c6174653a206361702065786365656465640081525060200191505060405180910390fd5b611b678282612f76565b5050565b6000600860009054906101000a900460ff1615611bd3576040517f08c379a00000000000000000000000000000000000000000000000000000000081526004018080602001828103825260358152602001806135876035913960400191505060405180910390fd5b611cad8a8a8080601f016020809104026020016040519081016040528093929190818152602001838380828437600081840152601f19601f8201169050808301925050505050505089898080601f016020809104026020016040519081016040528093929190818152602001838380828437600081840152601f19601f8201169050808301925050505050505088888888888080601f016020809104026020016040519081016040528093929190818152602001838380828437600081840152601f19601f82011690508083019250505050505050613131565b90509998505050505050505050565b60008060008373ffffffffffffffffffffffffffffffffffffffff1673ffffffffffffffffffffffffffffffffffffffff168152602001908152602001600020549050919050565b606060048054600181600116156101000203166002900480601f016020809104026020016040519081016040528092919081815260200182805460018160011615610100020316600290048015611d9c5780601f10611d7157610100808354040283529160200191611d9c565b820191906000526020600020905b815481529060010190602001808311611d7f57829003601f168201915b5050505050905090565b600080600c8054905090506000809050600080905060008090505b83811015611dfd5785600c8281548110611dd757fe5b90600052602060002001541415611df057809150600192505b8080600101915050611dc1565b5081611e71576040517f08c379a00000000000000000000000000000000000000000000000000000000081526004018080602001828103825260138152602001807f696e76616c69642065786368616e67652069640000000000000000000000000081525060200191505060405180910390fd5b600b600086815260200190815260200160002060030160009054906101000a900460ff16611f07576040517f08c379a00000000000000000000000000000000000000000000000000000000081526004018080602001828103825260108152602001807f4e6f2066726f7a656e20616d6f756e740000000000000000000000000000000081525060200191505060405180910390fd5b600b600086815260200190815260200160002060010160009054906101000a900473ffffffffffffffffffffffffffffffffffffffff1673ffffffffffffffffffffffffffffffffffffffff163373ffffffffffffffffffffffffffffffffffffffff1614611fde576040517f08c379a00000000000000000000000000000000000000000000000000000000081526004018080602001828103825260178152602001807f4f6e6c79206167656e63792063616e20646f207468697300000000000000000081525060200191505060405180910390fd5b600b600086815260200190815260200160002060030160019054906101000a900460ff1615612075576040517f08c379a00000000000000000000000000000000000000000000000000000000081526004018080602001828103825260128152602001807f6461746120686173206265656e2075736564000000000000000000000000000081525060200191505060405180910390fd5b6000600b600087815260200190815260200160002060030160006101000a81548160ff0219169083151502179055506120ed30600b600088815260200190815260200160002060000160009054906101000a900473ffffffffffffffffffffffffffffffffffffffff16670de0b6b3a7640000612b78565b3373ffffffffffffffffffffffffffffffffffffffff16600b600087815260200190815260200160002060000160009054906101000a900473ffffffffffffffffffffffffffffffffffffffff1673ffffffffffffffffffffffffffffffffffffffff16867f95f420ce30e7b929e28d9f973094e03ad0968601836d790586ef96c15831efff60405160405180910390a460008190505b600184038110156121d257600c600182018154811061219f57fe5b9060005260206000200154600c82815481106121b757fe5b90600052602060002001819055508080600101915050612184565b50600c60018403815481106121e357fe5b9060005260206000200160009055600c80548091906001900361220691906133f0565b50600b6000868152602001908152602001600020600080820160006101000a81549073ffffffffffffffffffffffffffffffffffffffff02191690556001820160006101000a81549073ffffffffffffffffffffffffffffffffffffffff021916905560028201600090556003820160006101000a81549060ff02191690556003820160016101000a81549060ff0219169055505060019350505050919050565b600061236a6122b4612979565b846123658560405180606001604052806025815260200161372560259139600160006122de612979565b73ffffffffffffffffffffffffffffffffffffffff1673ffffffffffffffffffffffffffffffffffffffff16815260200190815260200160002060008a73ffffffffffffffffffffffffffffffffffffffff1673ffffffffffffffffffffffffffffffffffffffff16815260200190815260200160002054612e2e9092919063ffffffff16565b612981565b6001905092915050565b6000612388612381612979565b8484612b78565b6001905092915050565b60008173ffffffffffffffffffffffffffffffffffffffff16600860019054906101000a900473ffffffffffffffffffffffffffffffffffffffff1673ffffffffffffffffffffffffffffffffffffffff16149050919050565b600080600c805490509050600080905060008090505b8281101561243b5784600c828154811061241857fe5b9060005260206000200154141561242e57600191505b8080600101915050612402565b5080156124a457600b600085815260200190815260200160002060030160009054906101000a900460ff1680156124935750600b600085815260200190815260200160002060030160019054906101000a900460ff16155b156124a3576001925050506124ab565b5b6000925050505b919050565b670de0b6b3a764000081565b6000600160008473ffffffffffffffffffffffffffffffffffffffff1673ffffffffffffffffffffffffffffffffffffffff16815260200190815260200160002060008373ffffffffffffffffffffffffffffffffffffffff1673ffffffffffffffffffffffffffffffffffffffff16815260200190815260200160002054905092915050565b670de0b6b3a764000081565b600860019054906101000a900473ffffffffffffffffffffffffffffffffffffffff1673ffffffffffffffffffffffffffffffffffffffff163373ffffffffffffffffffffffffffffffffffffffff16146125f5576040517f08c379a00000000000000000000000000000000000000000000000000000000081526004018080602001828103825260218152602001806135bc6021913960400191505060405180910390fd5b7f3644f086f9f5f050da8ea8cddb5531e920d0a819aaaa49b4761a48290238ae568282604051808381526020018281526020019250505060405180910390a15050565b60006001600a5401600a81905550670de0b6b3a764000061265833611cbc565b116126cb576040517f08c379a00000000000000000000000000000000000000000000000000000000081526004018080602001828103825260118152602001807f6e6f7420656e6f75676820746f6b656e7300000000000000000000000000000081525060200191505060405180910390fd5b6126de3330670de0b6b3a7640000612b78565b6040518060a001604052803373ffffffffffffffffffffffffffffffffffffffff1681526020018373ffffffffffffffffffffffffffffffffffffffff168152602001670de0b6b3a7640000815260200160011515815260200160001515815250600b6000600a54815260200190815260200160002060008201518160000160006101000a81548173ffffffffffffffffffffffffffffffffffffffff021916908373ffffffffffffffffffffffffffffffffffffffff16021790555060208201518160010160006101000a81548173ffffffffffffffffffffffffffffffffffffffff021916908373ffffffffffffffffffffffffffffffffffffffff1602179055506040820151816002015560608201518160030160006101000a81548160ff02191690831515021790555060808201518160030160016101000a81548160ff021916908315150217905550905050600c600a5490806001815401808255809150509060018203906000526020600020016000909192909190915055508173ffffffffffffffffffffffffffffffffffffffff163373ffffffffffffffffffffffffffffffffffffffff16600a547f9810c322d9b7097519559d2240ec227dae9ab4f644915b29e89dbb738c7b1ec3670de0b6b3a76400006040518082815260200191505060405180910390a4600a549050919050565b606060058054600181600116156101000203166002900480601f01602080910402602001604051908101604052809291908181526020018280546001816001161561010002031660029004801561296f5780601f106129445761010080835404028352916020019161296f565b820191906000526020600020905b81548152906001019060200180831161295257829003601f168201915b5050505050905090565b600033905090565b600073ffffffffffffffffffffffffffffffffffffffff168373ffffffffffffffffffffffffffffffffffffffff161415612a07576040517f08c379a00000000000000000000000000000000000000000000000000000000081526004018080602001828103825260248152602001806137016024913960400191505060405180910390fd5b600073ffffffffffffffffffffffffffffffffffffffff168273ffffffffffffffffffffffffffffffffffffffff161415612a8d576040517f08c379a00000000000000000000000000000000000000000000000000000000081526004018080602001828103825260228152602001806135656022913960400191505060405180910390fd5b80600160008573ffffffffffffffffffffffffffffffffffffffff1673ffffffffffffffffffffffffffffffffffffffff16815260200190815260200160002060008473ffffffffffffffffffffffffffffffffffffffff1673ffffffffffffffffffffffffffffffffffffffff168152602001908152602001600020819055508173ffffffffffffffffffffffffffffffffffffffff168373ffffffffffffffffffffffffffffffffffffffff167f8c5be1e5ebec7d5bd14f71427d1e84f3dd0314c0f7b2291e5b200ac8c7c3b925836040518082815260200191505060405180910390a3505050565b600073ffffffffffffffffffffffffffffffffffffffff168373ffffffffffffffffffffffffffffffffffffffff161415612bfe576040517f08c379a00000000000000000000000000000000000000000000000000000000081526004018080602001828103825260258152602001806136ae6025913960400191505060405180910390fd5b600073ffffffffffffffffffffffffffffffffffffffff168273ffffffffffffffffffffffffffffffffffffffff161415612c84576040517f08c379a00000000000000000000000000000000000000000000000000000000081526004018080602001828103825260238152602001806135426023913960400191505060405180910390fd5b612cef816040518060600160405280602681526020016135dd602691396000808773ffffffffffffffffffffffffffffffffffffffff1673ffffffffffffffffffffffffffffffffffffffff16815260200190815260200160002054612e2e9092919063ffffffff16565b6000808573ffffffffffffffffffffffffffffffffffffffff1673ffffffffffffffffffffffffffffffffffffffff16815260200190815260200160002081905550612d82816000808573ffffffffffffffffffffffffffffffffffffffff1673ffffffffffffffffffffffffffffffffffffffff16815260200190815260200160002054612eee90919063ffffffff16565b6000808473ffffffffffffffffffffffffffffffffffffffff1673ffffffffffffffffffffffffffffffffffffffff168152602001908152602001600020819055508173ffffffffffffffffffffffffffffffffffffffff168373ffffffffffffffffffffffffffffffffffffffff167fddf252ad1be2c89b69c2b068fc378daa952ba7f163c4a11628f55a4df523b3ef836040518082815260200191505060405180910390a3505050565b6000838311158290612edb576040517f08c379a00000000000000000000000000000000000000000000000000000000081526004018080602001828103825283818151815260200191508051906020019080838360005b83811015612ea0578082015181840152602081019050612e85565b50505050905090810190601f168015612ecd5780820380516001836020036101000a031916815260200191505b509250505060405180910390fd5b5060008385039050809150509392505050565b600080828401905083811015612f6c576040517f08c379a000000000000000000000000000000000000000000000000000000000815260040180806020018281038252601b8152602001807f536166654d6174683a206164646974696f6e206f766572666c6f77000000000081525060200191505060405180910390fd5b8091505092915050565b600073ffffffffffffffffffffffffffffffffffffffff168273ffffffffffffffffffffffffffffffffffffffff161415613019576040517f08c379a000000000000000000000000000000000000000000000000000000000815260040180806020018281038252601f8152602001807f45524332303a206d696e7420746f20746865207a65726f20616464726573730081525060200191505060405180910390fd5b61302e81600254612eee90919063ffffffff16565b600281905550613085816000808573ffffffffffffffffffffffffffffffffffffffff1673ffffffffffffffffffffffffffffffffffffffff16815260200190815260200160002054612eee90919063ffffffff16565b6000808473ffffffffffffffffffffffffffffffffffffffff1673ffffffffffffffffffffffffffffffffffffffff168152602001908152602001600020819055508173ffffffffffffffffffffffffffffffffffffffff16600073ffffffffffffffffffffffffffffffffffffffff167fddf252ad1be2c89b69c2b068fc378daa952ba7f163c4a11628f55a4df523b3ef836040518082815260200191505060405180910390a35050565b60008073ffffffffffffffffffffffffffffffffffffffff168573ffffffffffffffffffffffffffffffffffffffff1614156131b8576040517f08c379a00000000000000000000000000000000000000000000000000000000081526004018080602001828103825260308152602001806136036030913960400191505060405180910390fd5b600073ffffffffffffffffffffffffffffffffffffffff16600860019054906101000a900473ffffffffffffffffffffffffffffffffffffffff1673ffffffffffffffffffffffffffffffffffffffff161461325f576040517f08c379a000000000000000000000000000000000000000000000000000000000815260040180806020018281038252602f81526020018061367f602f913960400191505060405180910390fd5b60008414156132b9576040517f08c379a00000000000000000000000000000000000000000000000000000000081526004018080602001828103825260248152602001806136336024913960400191505060405180910390fd5b6000831415613313576040517f08c379a000000000000000000000000000000000000000000000000000000000815260040180806020018281038252602e8152602001806136d3602e913960400191505060405180910390fd5b8360068190555082600781905550866003908051906020019061333792919061349c565b50816005908051906020019061334e92919061349c565b50856004908051906020019061336592919061349c565b5084600860016101000a81548173ffffffffffffffffffffffffffffffffffffffff021916908373ffffffffffffffffffffffffffffffffffffffff1602179055506133b18584612f76565b6001600860006101000a81548160ff0219169083151502179055506000600a81905550600860009054906101000a900460ff1690509695505050505050565b81548183558181111561341757818360005260206000209182019101613416919061351c565b5b505050565b828054600181600116156101000203166002900490600052602060002090601f016020900481019282601f1061345d57803560ff191683800117855561348b565b8280016001018555821561348b579182015b8281111561348a57823582559160200191906001019061346f565b5b509050613498919061351c565b5090565b828054600181600116156101000203166002900490600052602060002090601f016020900481019282601f106134dd57805160ff191683800117855561350b565b8280016001018555821561350b579182015b8281111561350a5782518255916020019190600101906134ef565b5b509050613518919061351c565b5090565b61353e91905b8082111561353a576000816000905550600101613522565b5090565b9056fe45524332303a207472616e7366657220746f20746865207a65726f206164647265737345524332303a20617070726f766520746f20746865207a65726f206164647265737344617461546f6b656e54656d706c6174653a20746f6b656e20696e7374616e636520616c726561647920696e697469616c697a656444617461546f6b656e54656d706c6174653a20696e76616c6964206d696e74657245524332303a207472616e7366657220616d6f756e7420657863656564732062616c616e636544617461546f6b656e54656d706c6174653a20496e76616c6964206d696e7465722c20207a65726f206164647265737344617461546f6b656e54656d706c6174653a20496e76616c6964206361702076616c756545524332303a207472616e7366657220616d6f756e74206578636565647320616c6c6f77616e636544617461546f6b656e54656d706c6174653a20496e76616c6964206d696e7465722c207a65726f206164647265737345524332303a207472616e736665722066726f6d20746865207a65726f206164647265737344617461546f6b656e54656d706c6174653a20496e76616c696420696e697469616c537570706c792076616c756545524332303a20617070726f76652066726f6d20746865207a65726f206164647265737345524332303a2064656372656173656420616c6c6f77616e63652062656c6f77207a65726fa165627a7a7230582096e5d223d8e7cea85e97a7825788b9f4063d58b478eb2ce72874990046ea9750002944617461546f6b656e54656d706c6174653a20496e76616c6964206d696e7465722c20207a65726f206164647265737344617461546f6b656e54656d706c6174653a20496e76616c6964206361702076616c756544617461546f6b656e54656d706c6174653a20496e76616c6964206d696e7465722c207a65726f206164647265737344617461546f6b656e54656d706c6174653a20496e76616c696420696e697469616c537570706c792076616c7565",
  "source": "pragma solidity 0.5.7;\n\nimport '../interfaces/IERC20Template.sol';\nimport 'openzeppelin-solidity/contracts/token/ERC20/ERC20.sol';\n\n\n/**\n* @title DataTokenTemplate\n*  \n* @dev DataTokenTemplate is an ERC20 compliant token template\n*      Used by the factory contract as a bytecode reference to \n*      deploy new DataTokens.\n*/\ncontract DataTokenTemplate is IERC20Template, ERC20 {\n    using SafeMath for uint256;\n\n    string  private _name;\n    string  private _symbol;\n    string  private _proof;\n    uint256 private _cap;\n    uint256 private _initial;\n    uint8 private constant _decimals = 18;\n    bool    private initialized = false;\n    address private _minter;\n    string  private _justice;\n\n    modifier onlyNotInitialized() {\n        require(\n            !initialized,\n            'DataTokenTemplate: token instance already initialized'\n        );\n        _;\n    }\n    \n    modifier onlyMinter() {\n        require(\n            msg.sender == _minter,\n            'DataTokenTemplate: invalid minter' \n        );\n        _;\n    }\n\n    event SetJusticeInfo(\n        uint256 key,\n        bytes32 value\n    );\n\n    /**\n     * @dev constructor\n     *      Called prior contract deployment\n     * @param name refers to a template DataToken name\n     * @param symbol refers to a template DataToken symbol\n     * @param minterAddress refers to an address that has minter role\n     * @param cap the total ERC20 cap\n     * @param initialSupply the initial ERC20 supply\n     * @param proof proof represents the relationship between data and token\n     */\n    constructor(\n        string memory name,\n        string memory symbol,\n        address minterAddress,\n        uint256 cap,\n        uint256 initialSupply,\n        string memory proof\n    )\n        public\n    {\n        _initialize(\n            name,\n            symbol,\n            minterAddress,\n            cap,\n            initialSupply,\n            proof\n        );\n    }\n    \n    /**\n     * @dev initialize\n     *      Called prior contract initialization (e.g creating new DataToken instance)\n     *      Calls private _initialize function. Only if contract is not initialized.\n     * @param name refers to a new DataToken name\n     * @param symbol refers to a nea DataToken symbol\n     * @param minterAddress refers to an address that has minter rights\n     * @param cap the total ERC20 cap\n     * @param initialSupply the initial ERC20 supply\n     * @param proof proof represents the relationship between data and token\n     */\n    function initialize(\n        string calldata name,\n        string calldata symbol,\n        address minterAddress,\n        uint256 cap,\n        uint256 initialSupply,\n        string calldata proof\n    ) \n        external\n        onlyNotInitialized\n        returns(bool)\n    {\n        return _initialize(\n            name,\n            symbol,\n            minterAddress,\n            cap,\n            initialSupply,\n            proof\n        );\n    }\n\n    /**\n     * @dev _initialize\n     *      Private function called on contract initialization.\n     * @param name refers to a new DataToken name\n     * @param symbol refers to a nea DataToken symbol\n     * @param minterAddress refers to an address that has minter rights\n     * @param cap the total ERC20 cap\n     * @param initialSupply the initial ERC20 supply\n     * @param proof proof represents the relationship between data and token\n     */\n    function _initialize(\n        string memory name,\n        string memory symbol,\n        address minterAddress,\n        uint256 cap,\n        uint256 initialSupply,\n        string memory proof\n    )\n        private\n        returns(bool)\n    {\n        require(\n            minterAddress != address(0), \n            'DataTokenTemplate: Invalid minter,  zero address'\n        );\n\n        require(\n            _minter == address(0), \n            'DataTokenTemplate: Invalid minter, zero address'\n        );\n\n        require(\n            cap != 0,\n            'DataTokenTemplate: Invalid cap value'\n        );\n\n        require(\n            initialSupply != 0,\n            'DataTokenTemplate: Invalid initialSupply value'\n        );\n\n        _cap = cap;\n        _initial = initialSupply;\n        _name = name;\n        _proof = proof;\n        _symbol = symbol;\n        _minter = minterAddress;\n        _mint(minterAddress, initialSupply);\n        initialized = true;\n        _exchangeId = 0;\n        return initialized;\n    }\n\n    /**\n     * @dev mint\n     *      Only the minter address can call it.\n     *      msg.value should be higher than zero and gt or eq minting fee\n     * @param account refers to an address that token is going to be minted to.\n     * @param value refers to amount of tokens that is going to be minted.\n     */\n    function mint(\n        address account,\n        uint256 value\n    ) \n        external  \n        onlyMinter \n    {\n        require(\n            totalSupply().add(value) <= _cap, \n            'DataTokenTemplate: cap exceeded'\n        );\n        _mint(account, value);\n    }\n\n    /**\n     * @dev name\n     *      It returns the token name.\n     * @return DataToken name.\n     */\n    function name() external view returns(string memory) {\n        return _name;\n    }\n\n    /**\n     * @dev symbol\n     *      It returns the token symbol.\n     * @return DataToken symbol.\n     */\n    function symbol() external view returns(string memory) {\n        return _symbol;\n    }\n\n    /**\n     * @dev proof\n     *       proof represents the relationship between data and token.\n     * @return proof.\n     */\n    function proof() external view returns(string memory) {\n        return _proof;\n    }\n\n    /**\n     * @dev decimals\n     *      It returns the token decimals.\n     *      how many supported decimal points\n     * @return DataToken decimals.\n     */\n    function decimals() external view returns(uint8) {\n        return _decimals;\n    }\n\n    /**\n     * @dev cap\n     *      it returns the capital.\n     * @return DataToken cap.\n     */\n    function cap() external view returns (uint256) {\n        return _cap;\n    }\n\n    /**\n     * @dev isMinter\n     *      It takes the address and checks whether it has a minter role.\n     * @param account refers to the address.\n     * @return true if account has a minter role.\n     */\n    function isMinter(address account) external view returns(bool) {\n        return (_minter == account);\n    } \n\n    /**\n     * @dev minter\n     * @return minter's address.\n     */\n    function minter()\n        external\n        view \n        returns(address)\n    {\n        return _minter;\n    }\n\n    /**\n     * @dev isInitialized\n     *      It checks whether the contract is initialized.\n     * @return true if the contract is initialized.\n     */ \n    function isInitialized() external view returns(bool) {\n        return initialized;\n    }\n\n    /**\n     * @dev justice Institution\n     *      It returns the justice Institution.\n     * @return the justice Institution of metadata.\n     */\n    function justice() external view returns(string memory) {\n        return _justice;\n    }\n\n    /**\n     * @dev set Justice Institution\n     *      Only the minter address can call it.\n     *      msg.value should be higher than zero and gt or eq minting fee\n     * @param oneJustice refers to Justice Institution\n     */\n    function setJustice(string calldata oneJustice) \n        external\n        onlyMinter\n    {\n        _justice = oneJustice;\n    }\n\n    /**\n     * @dev set Justice Institution information\n     *      Only the minter address can call it.\n     *      msg.value should be higher than zero and gt or eq minting fee\n     * @param key Justice Institution information key\n     * @param value Justice Institution information value\n     */\n    function setJusticeInfo(uint256 key, bytes32 value) \n        external\n        onlyMinter\n    {\n        emit SetJusticeInfo(\n            key,\n            value\n        );\n    }\n\n    ////////////////////////////////////\n\n    struct Exchange {\n        address user;\n        address userAgency;\n        uint256 value;\n        bool freeze;\n        bool used;\n    }\n\n    // maps an exchangeId to an exchange\n    uint256 private _exchangeId;\n    mapping(uint256 => Exchange) private exchanges;\n    uint256[] private exchangeIds;\n\n    uint256 public constant BASE = 10**18;\n    uint256 public constant USAGE_FEE = BASE;\n\n    enum ExchangeState{ NOTEXIST, FREEZE, USED, END }\n\n    event ExchangeFreeze(\n        uint256 indexed exchangeId,\n        address indexed exchangeUser,\n        address indexed exchangeUserAgency,\n        uint256 value\n    );\n\n    event ExchangeCommit(\n        uint256 indexed exchangeId,\n        address indexed exchangeUser,\n        address indexed exchangeUserAgency\n    );\n\n    event ExchangeRollback(\n        uint256 indexed exchangeId,\n        address indexed exchangeUser,\n        address indexed exchangeUserAgency\n    );\n\n    event ExchangeSettle(\n        uint256 indexed exchangeId,\n        address indexed exchangeUser,\n        address indexed exchangeUserAgency,\n        uint256 value\n    );\n\n    function freezeExchange(address userAgency) external returns (uint256){\n        _exchangeId = _exchangeId + 1;\n\n        require(balanceOf(msg.sender) > USAGE_FEE, 'not enough tokens');\n\n        _transfer(msg.sender, address(this), USAGE_FEE);\n\n        exchanges[_exchangeId] = Exchange({\n            user: msg.sender,\n            userAgency: userAgency,\n            value: USAGE_FEE,\n            freeze: true,\n            used: false\n        });\n        exchangeIds.push(_exchangeId);\n\n        emit ExchangeFreeze (\n            _exchangeId,\n            msg.sender,\n            userAgency,\n            USAGE_FEE\n        );\n\n        return _exchangeId;\n    }\n\n    function verifyFreezeExchange(uint256 exchangeId) external view returns (bool){\n        uint256 length = exchangeIds.length;\n        bool find = false;\n        for (uint256 i = 0; i < length; i++){\n            if (exchangeIds[i] == exchangeId){\n                find = true;\n            }\n        }\n\n        if(find){\n            if(exchanges[exchangeId].freeze && !exchanges[exchangeId].used) {\n                return true;\n            }\n        }\n\n        return false;\n    }\n\n    function commitExchange(uint256 exchangeId) external returns (bool){\n        uint256 length = exchangeIds.length;\n        bool find = false;\n        for (uint256 i = 0; i < length; i++){\n            if (exchangeIds[i] == exchangeId){\n                find = true;\n            }\n        }\n\n        require(find, \"invalid exchange id\");\n        require(exchanges[exchangeId].freeze, \"No frozen amount\");\n        require(msg.sender == exchanges[exchangeId].userAgency, \"Only agency can do this\");\n        require(!exchanges[exchangeId].used, \"data has been used\");\n\n        exchanges[exchangeId].used = true;\n\n        emit ExchangeCommit(\n            exchangeId,\n            exchanges[exchangeId].user,\n            msg.sender\n        );\n\n        return true;\n    }\n\n    function rollbackExchange(uint256 exchangeId) external returns (bool){\n        uint256 length = exchangeIds.length;\n        bool find = false;\n        uint256 index = 0;\n        for (uint256 i = 0; i < length; i++){\n            if (exchangeIds[i] == exchangeId){\n                index = i;\n                find = true;\n            }\n        }\n\n        require(find, \"invalid exchange id\");\n        require(exchanges[exchangeId].freeze, \"No frozen amount\");\n        require(msg.sender == exchanges[exchangeId].userAgency, \"Only agency can do this\");\n        require(!exchanges[exchangeId].used, \"data has been used\");\n\n        exchanges[exchangeId].freeze = false;\n\n        // \n        _transfer(address(this), exchanges[exchangeId].user, USAGE_FEE);\n\n        emit ExchangeRollback(\n            exchangeId,\n            exchanges[exchangeId].user,\n            msg.sender\n        );\n\n        for (uint256 i = index; i < length - 1; i++) {\n            exchangeIds[i] = exchangeIds[i+1];\n        }\n\n        delete exchangeIds[length - 1];\n        exchangeIds.length--;\n\n        delete exchanges[exchangeId];\n\n        return true;\n    }\n\n    function settleExchange(uint256 exchangeId) external returns (bool){\n        uint256 length = exchangeIds.length;\n        bool find = false;\n        uint256 index = 0;\n        for (uint256 i = 0; i < length; i++){\n            if (exchangeIds[i] == exchangeId){\n                index = i;\n                find = true;\n            }\n        }\n\n        require(find, \"invalid exchange id\");\n        require(exchanges[exchangeId].freeze, \"No frozen amount\");\n        require(msg.sender == exchanges[exchangeId].userAgency, \"Only agency can do this\");\n        require(exchanges[exchangeId].used, \"data has not been used\");\n\n\n        exchanges[exchangeId].freeze = false;\n\n        //  minter \n        _transfer(address(this), _minter, exchanges[exchangeId].value);\n\n            emit ExchangeSettle(\n                exchangeId,\n                exchanges[exchangeId].user,\n                exchanges[exchangeId].userAgency,\n                exchanges[exchangeId].value\n            );\n\n        for (uint256 i = index; i < length - 1; i++) {\n            exchangeIds[i] = exchangeIds[i+1];\n        }\n\n        delete exchangeIds[length - 1];\n        exchangeIds.length--;\n\n        delete exchanges[exchangeId];\n\n        return true;\n}\n\n\n    function exchangeState(uint256 exchangeId) external view returns (uint){\n        ExchangeState state;\n        uint256 length = exchangeIds.length;\n        bool find = false;\n        uint256 index = 0;\n        for (uint256 i = 0; i < length; i++){\n            if (exchangeIds[i] == exchangeId){\n                index = i;\n                find = true;\n            }\n        }\n\n        // \n        if(!find){\n            state = ExchangeState.NOTEXIST;\n        } else if(exchanges[exchangeId].freeze){\n            if(!exchanges[exchangeId].used) {\n                state = ExchangeState.FREEZE;\n            }else {\n                state = ExchangeState.USED;\n            }\n        } else {\n            state = ExchangeState.END;\n        }\n\n        return uint(state);\n    }\n}\n",
  "sourcePath": "/home/juzix/jatel/develop/DataToken-Contracts/DataToken/contracts/templates/DataTokenTemplate.sol",
  "compiler": {
    "name": "solc",
    "version": "0.5.7+commit.6da8b019.Emscripten.clang"
  },
  "schemaVersion": "3.4.6",
  "updatedAt": "2022-04-18T08:51:09.919Z",
  "devdoc": {
    "details": "DataTokenTemplate is an ERC20 compliant token template     Used by the factory contract as a bytecode reference to      deploy new DataTokens.",
    "methods": {
      "allowance(address,address)": {
        "details": "See {IERC20-allowance}."
      },
      "approve(address,uint256)": {
        "details": "See {IERC20-approve}.     * Requirements:     * - `spender` cannot be the zero address."
      },
      "balanceOf(address)": {
        "details": "See {IERC20-balanceOf}."
      },
      "cap()": {
        "details": "cap     it returns the capital.",
        "return": "DataToken cap."
      },
      "constructor": {
        "details": "constructor     Called prior contract deployment",
        "params": {
          "cap": "the total ERC20 cap",
          "initialSupply": "the initial ERC20 supply",
          "minterAddress": "refers to an address that has minter role",
          "name": "refers to a template DataToken name",
          "proof": "proof represents the relationship between data and token",
          "symbol": "refers to a template DataToken symbol"
        }
      },
      "decimals()": {
        "details": "decimals     It returns the token decimals.     how many supported decimal points",
        "return": "DataToken decimals."
      },
      "decreaseAllowance(address,uint256)": {
        "details": "Atomically decreases the allowance granted to `spender` by the caller.     * This is an alternative to {approve} that can be used as a mitigation for problems described in {IERC20-approve}.     * Emits an {Approval} event indicating the updated allowance.     * Requirements:     * - `spender` cannot be the zero address. - `spender` must have allowance for the caller of at least `subtractedValue`."
      },
      "increaseAllowance(address,uint256)": {
        "details": "Atomically increases the allowance granted to `spender` by the caller.     * This is an alternative to {approve} that can be used as a mitigation for problems described in {IERC20-approve}.     * Emits an {Approval} event indicating the updated allowance.     * Requirements:     * - `spender` cannot be the zero address."
      },
      "initialize(string,string,address,uint256,uint256,string)": {
        "details": "initialize     Called prior contract initialization (e.g creating new DataToken instance)     Calls private _initialize function. Only if contract is not initialized.",
        "params": {
          "cap": "the total ERC20 cap",
          "initialSupply": "the initial ERC20 supply",
          "minterAddress": "refers to an address that has minter rights",
          "name": "refers to a new DataToken name",
          "proof": "proof represents the relationship between data and token",
          "symbol": "refers to a nea DataToken symbol"
        }
      },
      "isInitialized()": {
        "details": "isInitialized     It checks whether the contract is initialized.",
        "return": "true if the contract is initialized."
      },
      "isMinter(address)": {
        "details": "isMinter     It takes the address and checks whether it has a minter role.",
        "params": {
          "account": "refers to the address."
        },
        "return": "true if account has a minter role."
      },
      "justice()": {
        "details": "justice Institution     It returns the justice Institution.",
        "return": "the justice Institution of metadata."
      },
      "mint(address,uint256)": {
        "details": "mint     Only the minter address can call it.     msg.value should be higher than zero and gt or eq minting fee",
        "params": {
          "account": "refers to an address that token is going to be minted to.",
          "value": "refers to amount of tokens that is going to be minted."
        }
      },
      "minter()": {
        "details": "minter",
        "return": "minter's address."
      },
      "name()": {
        "details": "name     It returns the token name.",
        "return": "DataToken name."
      },
      "proof()": {
        "details": "proof      proof represents the relationship between data and token.",
        "return": "proof."
      },
      "setJustice(string)": {
        "details": "set Justice Institution     Only the minter address can call it.     msg.value should be higher than zero and gt or eq minting fee",
        "params": {
          "oneJustice": "refers to Justice Institution"
        }
      },
      "setJusticeInfo(uint256,bytes32)": {
        "details": "set Justice Institution information     Only the minter address can call it.     msg.value should be higher than zero and gt or eq minting fee",
        "params": {
          "key": "Justice Institution information key",
          "value": "Justice Institution information value"
        }
      },
      "symbol()": {
        "details": "symbol     It returns the token symbol.",
        "return": "DataToken symbol."
      },
      "totalSupply()": {
        "details": "See {IERC20-totalSupply}."
      },
      "transfer(address,uint256)": {
        "details": "See {IERC20-transfer}.     * Requirements:     * - `recipient` cannot be the zero address. - the caller must have a balance of at least `amount`."
      },
      "transferFrom(address,address,uint256)": {
        "details": "See {IERC20-transferFrom}.     * Emits an {Approval} event indicating the updated allowance. This is not required by the EIP. See the note at the beginning of {ERC20};     * Requirements: - `sender` and `recipient` cannot be the zero address. - `sender` must have a balance of at least `amount`. - the caller must have allowance for `sender`'s tokens of at least `amount`."
      }
    },
    "title": "DataTokenTemplate "
  },
  "userdoc": {
    "methods": {}
  }
}