{
  "contractName": "DataTokenFactory",
  "abi": [
    {
      "inputs": [
        {
          "name": "_template",
          "type": "address"
        }
      ],
      "payable": false,
      "stateMutability": "nonpayable",
      "type": "constructor"
    },
    {
      "anonymous": false,
      "inputs": [
        {
          "indexed": true,
          "name": "newTokenAddress",
          "type": "address"
        },
        {
          "indexed": true,
          "name": "templateAddress",
          "type": "address"
        },
        {
          "indexed": true,
          "name": "tokenName",
          "type": "string"
        }
      ],
      "name": "TokenCreated",
      "type": "event"
    },
    {
      "anonymous": false,
      "inputs": [
        {
          "indexed": true,
          "name": "tokenAddress",
          "type": "address"
        },
        {
          "indexed": false,
          "name": "tokenName",
          "type": "string"
        },
        {
          "indexed": false,
          "name": "tokenSymbol",
          "type": "string"
        },
        {
          "indexed": false,
          "name": "tokenCap",
          "type": "uint256"
        },
        {
          "indexed": false,
          "name": "initialSupply",
          "type": "uint256"
        },
        {
          "indexed": true,
          "name": "registeredBy",
          "type": "address"
        },
        {
          "indexed": false,
          "name": "proof",
          "type": "string"
        }
      ],
      "name": "TokenRegistered",
      "type": "event"
    },
    {
      "anonymous": false,
      "inputs": [
        {
          "indexed": false,
          "name": "instance",
          "type": "address"
        }
      ],
      "name": "InstanceDeployed",
      "type": "event"
    },
    {
      "constant": false,
      "inputs": [
        {
          "name": "name",
          "type": "string"
        },
        {
          "name": "symbol",
          "type": "string"
        },
        {
          "name": "cap",
          "type": "uint256"
        },
        {
          "name": "initialSupply",
          "type": "uint256"
        },
        {
          "name": "proof",
          "type": "string"
        }
      ],
      "name": "createToken",
      "outputs": [
        {
          "name": "token",
          "type": "address"
        }
      ],
      "payable": false,
      "stateMutability": "nonpayable",
      "type": "function"
    },
    {
      "constant": true,
      "inputs": [],
      "name": "getTokenTemplate",
      "outputs": [
        {
          "name": "",
          "type": "address"
        }
      ],
      "payable": false,
      "stateMutability": "view",
      "type": "function"
    }
  ],
  "bytecode": "0x608060405234801561001057600080fd5b50604051602080610bd68339810180604052602081101561003057600080fd5b8101908080519060200190929190505050600073ffffffffffffffffffffffffffffffffffffffff168173ffffffffffffffffffffffffffffffffffffffff1614156100c7576040517f08c379a000000000000000000000000000000000000000000000000000000000815260040180806020018281038252602a815260200180610bac602a913960400191505060405180910390fd5b806000806101000a81548173ffffffffffffffffffffffffffffffffffffffff021916908373ffffffffffffffffffffffffffffffffffffffff16021790555050610a95806101176000396000f3fe608060405234801561001057600080fd5b50600436106100365760003560e01c80632d2d67121461003b578063490aad7614610278575b600080fd5b610236600480360360a081101561005157600080fd5b810190808035906020019064010000000081111561006e57600080fd5b82018360208201111561008057600080fd5b803590602001918460018302840111640100000000831117156100a257600080fd5b91908080601f016020809104026020016040519081016040528093929190818152602001838380828437600081840152601f19601f8201169050808301925050505050505091929192908035906020019064010000000081111561010557600080fd5b82018360208201111561011757600080fd5b8035906020019184600183028401116401000000008311171561013957600080fd5b91908080601f016020809104026020016040519081016040528093929190818152602001838380828437600081840152601f19601f8201169050808301925050505050505091929192908035906020019092919080359060200190929190803590602001906401000000008111156101b057600080fd5b8201836020820111156101c257600080fd5b803590602001918460018302840111640100000000831117156101e457600080fd5b91908080601f016020809104026020016040519081016040528093929190818152602001838380828437600081840152601f19601f8201169050808301925050505050505091929192905050506102c2565b604051808273ffffffffffffffffffffffffffffffffffffffff1673ffffffffffffffffffffffffffffffffffffffff16815260200191505060405180910390f35b6102806108d4565b604051808273ffffffffffffffffffffffffffffffffffffffff1673ffffffffffffffffffffffffffffffffffffffff16815260200191505060405180910390f35b60008084141561031d576040517f08c379a0000000000000000000000000000000000000000000000000000000008152600401808060200182810382526029815260200180610a416029913960400191505060405180910390fd5b6103476000809054906101000a900473ffffffffffffffffffffffffffffffffffffffff166108fd565b9050600073ffffffffffffffffffffffffffffffffffffffff168173ffffffffffffffffffffffffffffffffffffffff1614156103cf576040517f08c379a0000000000000000000000000000000000000000000000000000000008152600401808060200182810382526041815260200180610a006041913960600191505060405180910390fd5b60008190508073ffffffffffffffffffffffffffffffffffffffff16634d4e8b468888338989896040518763ffffffff1660e01b81526004018080602001806020018773ffffffffffffffffffffffffffffffffffffffff1673ffffffffffffffffffffffffffffffffffffffff1681526020018681526020018581526020018060200184810384528a818151815260200191508051906020019080838360005b8381101561048b578082015181840152602081019050610470565b50505050905090810190601f1680156104b85780820380516001836020036101000a031916815260200191505b50848103835289818151815260200191508051906020019080838360005b838110156104f15780820151818401526020810190506104d6565b50505050905090810190601f16801561051e5780820380516001836020036101000a031916815260200191505b50848103825285818151815260200191508051906020019080838360005b8381101561055757808201518184015260208101905061053c565b50505050905090810190601f1680156105845780820380516001836020036101000a031916815260200191505b509950505050505050505050602060405180830381600087803b1580156105aa57600080fd5b505af11580156105be573d6000803e3d6000fd5b505050506040513d60208110156105d457600080fd5b810190808051906020019092919050505061063a576040517f08c379a00000000000000000000000000000000000000000000000000000000081526004018080602001828103825260358152602001806109cb6035913960400191505060405180910390fd5b866040518082805190602001908083835b6020831061066e578051825260208201915060208101905060208303925061064b565b6001836020036101000a03801982511681845116808217855250505050505090500191505060405180910390206000809054906101000a900473ffffffffffffffffffffffffffffffffffffffff1673ffffffffffffffffffffffffffffffffffffffff168373ffffffffffffffffffffffffffffffffffffffff167fb51c8cbe199ffe8b0d1d39b62d473569750653cb18b165f77ae423b3900180ad60405160405180910390a43373ffffffffffffffffffffffffffffffffffffffff168273ffffffffffffffffffffffffffffffffffffffff167f6af1b2b80c1bbb5a423dde741a2f51a662ca7ec74e7b32c4b74e20f54a247ed3898989898960405180806020018060200186815260200185815260200180602001848103845289818151815260200191508051906020019080838360005b838110156107be5780820151818401526020810190506107a3565b50505050905090810190601f1680156107eb5780820380516001836020036101000a031916815260200191505b50848103835288818151815260200191508051906020019080838360005b83811015610824578082015181840152602081019050610809565b50505050905090810190601f1680156108515780820380516001836020036101000a031916815260200191505b50848103825285818151815260200191508051906020019080838360005b8381101561088a57808201518184015260208101905061086f565b50505050905090810190601f1680156108b75780820380516001836020036101000a031916815260200191505b509850505050505050505060405180910390a35095945050505050565b60008060009054906101000a900473ffffffffffffffffffffffffffffffffffffffff16905090565b6000808260601b90506040517f3d602d80600a3d3981f3363d3d373d3d3d363d7300000000000000000000000081528160148201527f5af43d82803e903d91602b57fd5bf3000000000000000000000000000000000060288201526037816000f09250507f117c72e6c25f0a072e36e148df71468ce2f3dbe7defec5b2c257a6e3eb65278c82604051808273ffffffffffffffffffffffffffffffffffffffff1673ffffffffffffffffffffffffffffffffffffffff16815260200191505060405180910390a15091905056fe44617461546f6b656e466163746f72793a20556e61626c6520746f20696e697469616c697a6520746f6b656e20696e7374616e636544617461546f6b656e466163746f72793a204661696c656420746f20706572666f726d206d696e696d616c206465706c6f79206f662061206e657720746f6b656e44617461546f6b656e466163746f72793a207a65726f20636170206973206e6f7420616c6c6f776564a165627a7a72305820f0df723a030b8de4ba90afcea3a6112a10bb70c345772fa74f806c99194a75ea002944617461546f6b656e466163746f72793a20496e76616c69642074656d706c6174652061646472657373",
  "source": "pragma solidity 0.5.7;\n\nimport './utilitys/Deployer.sol';\nimport './interfaces/IERC20Template.sol';\n\n/**\n * @title DataTokenFactory contract\n * @author Metis Network Team\n *\n * @dev Implementation of DataTokenFactory\n *\n *      DataTokenFactory deploys DataToken proxy contracts.\n *      New DataToken proxy contracts are links to the template contract's bytecode.\n *      Proxy contract functionality is based on implementation of ERC1167 standard.\n */\ncontract DataTokenFactory is Deployer {\n    address private tokenTemplate;\n\n    event TokenCreated(\n        address indexed newTokenAddress, \n        address indexed templateAddress, \n        string indexed tokenName  \n    );\n\n    event TokenRegistered(\n        address indexed tokenAddress,\n        string tokenName,\n        string tokenSymbol,\n        uint256 tokenCap,\n        uint256 initialSupply,\n        address indexed registeredBy,\n        string proof\n    );\n\n    /**\n     * @dev constructor\n     *      Called on contract deployment. Could not be called with zero address parameters.\n     * @param _template refers to the address of a deployed DataToken contract.\n     */\n    constructor(\n        address _template\n    ) public {\n        require(\n            _template != address(0),\n            'DataTokenFactory: Invalid template address'\n        );\n        tokenTemplate = _template;\n    }\n\n    /**\n     * @dev Deploys new DataToken proxy contract.\n     *      Template contract address could not be a zero address.\n     * @param name token name\n     * @param symbol token symbol\n     * @param cap the maximum total supply\n     * @param initialSupply the initial supply\n     * @param proof proof represents the relationship between data and token\n     * @return address of a new proxy DataToken contract\n     */\n    function createToken(\n        string memory name,\n        string memory symbol,\n        uint256 cap,\n        uint256 initialSupply,\n        string memory proof\n    )\n        public\n        returns (address token)\n    {\n        require(\n            cap != 0,\n            'DataTokenFactory: zero cap is not allowed'\n        );\n\n        token = deploy(tokenTemplate);\n\n        require(\n            token != address(0),\n            'DataTokenFactory: Failed to perform minimal deploy of a new token'\n        );\n\n        IERC20Template tokenInstance = IERC20Template(token);\n        require(\n            tokenInstance.initialize(\n                name,\n                symbol,\n                msg.sender,\n                cap,\n                initialSupply,\n                proof\n            ),\n            'DataTokenFactory: Unable to initialize token instance'\n        );\n        emit TokenCreated(token, tokenTemplate, name);\n        emit TokenRegistered(\n            token,\n            name,\n            symbol,\n            cap,\n            initialSupply,\n            msg.sender,\n            proof\n        );\n    }\n\n    /**\n     * @dev get the token template address\n     * @return the template address\n     */\n    function getTokenTemplate() external view returns (address) {\n        return tokenTemplate;\n    }\n}",
  "sourcePath": "/home/juzix/jatel/develop/DataToken-Contracts/DataToken/contracts/DataTokenFactory.sol",
  "compiler": {
    "name": "solc",
    "version": "0.5.7+commit.6da8b019.Emscripten.clang"
  },
  "schemaVersion": "3.4.6",
  "updatedAt": "2022-04-18T08:51:09.917Z",
  "devdoc": {
    "author": "Metis Network Team",
    "details": "Implementation of DataTokenFactory *      DataTokenFactory deploys DataToken proxy contracts.     New DataToken proxy contracts are links to the template contract's bytecode.     Proxy contract functionality is based on implementation of ERC1167 standard.",
    "methods": {
      "constructor": {
        "details": "constructor     Called on contract deployment. Could not be called with zero address parameters.",
        "params": {
          "_template": "refers to the address of a deployed DataToken contract."
        }
      },
      "createToken(string,string,uint256,uint256,string)": {
        "details": "Deploys new DataToken proxy contract.     Template contract address could not be a zero address.",
        "params": {
          "cap": "the maximum total supply",
          "initialSupply": "the initial supply",
          "name": "token name",
          "proof": "proof represents the relationship between data and token",
          "symbol": "token symbol"
        },
        "return": "address of a new proxy DataToken contract"
      },
      "getTokenTemplate()": {
        "details": "get the token template address",
        "return": "the template address"
      }
    },
    "title": "DataTokenFactory contract"
  },
  "userdoc": {
    "methods": {}
  }
}