{
  "contractName": "MetisPay",
  "abi": [
    {
      "anonymous": false,
      "inputs": [
        {
          "indexed": true,
          "internalType": "address",
          "name": "previousOwner",
          "type": "address"
        },
        {
          "indexed": true,
          "internalType": "address",
          "name": "newOwner",
          "type": "address"
        }
      ],
      "name": "OwnershipTransferred",
      "type": "event"
    },
    {
      "anonymous": false,
      "inputs": [
        {
          "indexed": true,
          "internalType": "uint256",
          "name": "taskId",
          "type": "uint256"
        },
        {
          "indexed": true,
          "internalType": "address",
          "name": "user",
          "type": "address"
        },
        {
          "indexed": true,
          "internalType": "address",
          "name": "userAgency",
          "type": "address"
        },
        {
          "indexed": false,
          "internalType": "uint256",
          "name": "fee",
          "type": "uint256"
        },
        {
          "indexed": false,
          "internalType": "address[]",
          "name": "tokenAddressList",
          "type": "address[]"
        },
        {
          "indexed": false,
          "internalType": "uint256[]",
          "name": "tokenValueList",
          "type": "uint256[]"
        }
      ],
      "name": "PrepayEvent",
      "type": "event"
    },
    {
      "anonymous": false,
      "inputs": [
        {
          "indexed": true,
          "internalType": "uint256",
          "name": "taskId",
          "type": "uint256"
        },
        {
          "indexed": true,
          "internalType": "address",
          "name": "user",
          "type": "address"
        },
        {
          "indexed": true,
          "internalType": "address",
          "name": "userAgency",
          "type": "address"
        },
        {
          "indexed": false,
          "internalType": "uint256",
          "name": "Agencyfee",
          "type": "uint256"
        },
        {
          "indexed": false,
          "internalType": "uint256",
          "name": "refund",
          "type": "uint256"
        },
        {
          "indexed": false,
          "internalType": "address[]",
          "name": "tokenAddressList",
          "type": "address[]"
        },
        {
          "indexed": false,
          "internalType": "uint256[]",
          "name": "tokenValueList",
          "type": "uint256[]"
        }
      ],
      "name": "SettleEvent",
      "type": "event"
    },
    {
      "inputs": [],
      "name": "owner",
      "outputs": [
        {
          "internalType": "address",
          "name": "",
          "type": "address"
        }
      ],
      "stateMutability": "view",
      "type": "function",
      "constant": true
    },
    {
      "inputs": [],
      "name": "renounceOwnership",
      "outputs": [],
      "stateMutability": "nonpayable",
      "type": "function"
    },
    {
      "inputs": [
        {
          "internalType": "address",
          "name": "newOwner",
          "type": "address"
        }
      ],
      "name": "transferOwnership",
      "outputs": [],
      "stateMutability": "nonpayable",
      "type": "function"
    },
    {
      "inputs": [
        {
          "internalType": "address",
          "name": "metisLat",
          "type": "address"
        }
      ],
      "name": "initialize",
      "outputs": [],
      "stateMutability": "nonpayable",
      "type": "function"
    },
    {
      "inputs": [
        {
          "internalType": "address",
          "name": "userAgency",
          "type": "address"
        }
      ],
      "name": "authorize",
      "outputs": [
        {
          "internalType": "bool",
          "name": "success",
          "type": "bool"
        }
      ],
      "stateMutability": "nonpayable",
      "type": "function"
    },
    {
      "inputs": [
        {
          "internalType": "address",
          "name": "userAddress",
          "type": "address"
        }
      ],
      "name": "whitelist",
      "outputs": [
        {
          "internalType": "address[]",
          "name": "",
          "type": "address[]"
        }
      ],
      "stateMutability": "view",
      "type": "function",
      "constant": true
    },
    {
      "inputs": [
        {
          "internalType": "address",
          "name": "userAgency",
          "type": "address"
        }
      ],
      "name": "addWhitelist",
      "outputs": [
        {
          "internalType": "bool",
          "name": "success",
          "type": "bool"
        }
      ],
      "stateMutability": "nonpayable",
      "type": "function"
    },
    {
      "inputs": [
        {
          "internalType": "address",
          "name": "userAgency",
          "type": "address"
        }
      ],
      "name": "deleteWhitelist",
      "outputs": [
        {
          "internalType": "bool",
          "name": "success",
          "type": "bool"
        }
      ],
      "stateMutability": "nonpayable",
      "type": "function"
    },
    {
      "inputs": [
        {
          "internalType": "uint256",
          "name": "taskId",
          "type": "uint256"
        },
        {
          "internalType": "address",
          "name": "user",
          "type": "address"
        },
        {
          "internalType": "uint256",
          "name": "fee",
          "type": "uint256"
        },
        {
          "internalType": "address[]",
          "name": "tokenAddressList",
          "type": "address[]"
        },
        {
          "internalType": "uint256[]",
          "name": "tokenValueList",
          "type": "uint256[]"
        }
      ],
      "name": "prepay",
      "outputs": [
        {
          "internalType": "bool",
          "name": "success",
          "type": "bool"
        }
      ],
      "stateMutability": "nonpayable",
      "type": "function"
    },
    {
      "inputs": [
        {
          "internalType": "uint256",
          "name": "taskId",
          "type": "uint256"
        },
        {
          "internalType": "uint256",
          "name": "fee",
          "type": "uint256"
        }
      ],
      "name": "settle",
      "outputs": [
        {
          "internalType": "bool",
          "name": "success",
          "type": "bool"
        }
      ],
      "stateMutability": "nonpayable",
      "type": "function"
    }
  ],
  "bytecode": "0x608060405234801561001057600080fd5b50613f4d806100206000396000f3fe608060405234801561001057600080fd5b506004361061009e5760003560e01c8063b6a5d7de11610066578063b6a5d7de1461015b578063c4d66de81461018b578063f2fde38b146101a7578063f80f5dd5146101c3578063ff68f6af146101f35761009e565b80630ef92166146100a3578063715018a6146100d35780638da5cb5b146100dd5780639a9c29f6146100fb5780639b19251a1461012b575b600080fd5b6100bd60048036038101906100b89190612de2565b610223565b6040516100ca9190612eb0565b60405180910390f35b6100db610c17565b005b6100e5610c9f565b6040516100f29190612eda565b60405180910390f35b61011560048036038101906101109190612ef5565b610cc9565b6040516101229190612eb0565b60405180910390f35b61014560048036038101906101409190612f35565b6119f4565b6040516101529190613020565b60405180910390f35b61017560048036038101906101709190612f35565b611b60565b6040516101829190612eb0565b60405180910390f35b6101a560048036038101906101a09190612f35565b611b72565b005b6101c160048036038101906101bc9190612f35565b611c98565b005b6101dd60048036038101906101d89190612f35565b611d8f565b6040516101ea9190612eb0565b60405180910390f35b61020d60048036038101906102089190612f35565b61210b565b60405161021a9190612eb0565b60405180910390f35b60008151835114610269576040517f08c379a00000000000000000000000000000000000000000000000000000000081526004016102609061309f565b60405180910390fd5b600080606780549050905060005b81811015610308578773ffffffffffffffffffffffffffffffffffffffff16606782815481106102aa576102a96130bf565b5b9060005260206000200160009054906101000a900473ffffffffffffffffffffffffffffffffffffffff1673ffffffffffffffffffffffffffffffffffffffff16036102f557600192505b80806103009061311d565b915050610277565b5081610349576040517f08c379a0000000000000000000000000000000000000000000000000000000008152600401610340906131b1565b60405180910390fd5b60009150606660008873ffffffffffffffffffffffffffffffffffffffff1673ffffffffffffffffffffffffffffffffffffffff16815260200190815260200160002080549050905060005b81811015610463573373ffffffffffffffffffffffffffffffffffffffff16606660008a73ffffffffffffffffffffffffffffffffffffffff1673ffffffffffffffffffffffffffffffffffffffff1681526020019081526020016000208281548110610405576104046130bf565b5b9060005260206000200160009054906101000a900473ffffffffffffffffffffffffffffffffffffffff1673ffffffffffffffffffffffffffffffffffffffff160361045057600192505b808061045b9061311d565b915050610395565b50816104a4576040517f08c379a000000000000000000000000000000000000000000000000000000000815260040161049b9061321d565b60405180910390fd5b60009150606980549050905060005b818110156104f85788606982815481106104d0576104cf6130bf565b5b9060005260206000200154036104e557600192505b80806104f09061311d565b9150506104b3565b50811561053a576040517f08c379a000000000000000000000000000000000000000000000000000000000815260040161053190613289565b60405180910390fd5b6000610569606560009054906101000a900473ffffffffffffffffffffffffffffffffffffffff168930612783565b9050868110156105ae576040517f08c379a00000000000000000000000000000000000000000000000000000000081526004016105a5906132f5565b60405180910390fd5b8551915060005b8281101561063a576105e28782815181106105d3576105d26130bf565b5b60200260200101518a30612783565b915087821015610627576040517f08c379a000000000000000000000000000000000000000000000000000000000815260040161061e90613361565b60405180910390fd5b80806106329061311d565b9150506105b5565b50600060606000606560009054906101000a900473ffffffffffffffffffffffffffffffffffffffff1673ffffffffffffffffffffffffffffffffffffffff168b308c60405160240161068f93929190613390565b6040516020818303038152906040527f23b872dd000000000000000000000000000000000000000000000000000000007bffffffffffffffffffffffffffffffffffffffffffffffffffffffff19166020820180517bffffffffffffffffffffffffffffffffffffffffffffffffffffffff83818316178352505050506040516107199190613441565b6000604051808303816000865af19150503d8060008114610756576040519150601f19603f3d011682016040523d82523d6000602084013e61075b565b606091505b508093508194505050826107a4576040517f08c379a000000000000000000000000000000000000000000000000000000000815260040161079b906134a4565b60405180910390fd5b818060200190518101906107b891906134f0565b9050806107fa576040517f08c379a00000000000000000000000000000000000000000000000000000000081526004016107f19061358f565b60405180910390fd5b60005b858110156109e357898181518110610818576108176130bf565b5b602002602001015173ffffffffffffffffffffffffffffffffffffffff168c308b848151811061084b5761084a6130bf565b5b602002602001015160405160240161086593929190613390565b6040516020818303038152906040527f23b872dd000000000000000000000000000000000000000000000000000000007bffffffffffffffffffffffffffffffffffffffffffffffffffffffff19166020820180517bffffffffffffffffffffffffffffffffffffffffffffffffffffffff83818316178352505050506040516108ef9190613441565b6000604051808303816000865af19150503d806000811461092c576040519150601f19603f3d011682016040523d82523d6000602084013e610931565b606091505b5080945081955050508361097a576040517f08c379a0000000000000000000000000000000000000000000000000000000008152600401610971906134a4565b60405180910390fd5b8280602001905181019061098e91906134f0565b9150816109d0576040517f08c379a00000000000000000000000000000000000000000000000000000000081526004016109c79061358f565b60405180910390fd5b80806109db9061311d565b9150506107fd565b506040518060e001604052808c73ffffffffffffffffffffffffffffffffffffffff1681526020013373ffffffffffffffffffffffffffffffffffffffff1681526020018b81526020018a815260200189815260200160011515815260200160001515815250606860008e815260200190815260200160002060008201518160000160006101000a81548173ffffffffffffffffffffffffffffffffffffffff021916908373ffffffffffffffffffffffffffffffffffffffff16021790555060208201518160010160006101000a81548173ffffffffffffffffffffffffffffffffffffffff021916908373ffffffffffffffffffffffffffffffffffffffff160217905550604082015181600201556060820151816003019080519060200190610b109291906129e8565b506080820151816004019080519060200190610b2d929190612a72565b5060a08201518160050160006101000a81548160ff02191690831515021790555060c08201518160050160016101000a81548160ff02191690831515021790555090505060698c90806001815401808255809150506001900390600052602060002001600090919091909150553373ffffffffffffffffffffffffffffffffffffffff168b73ffffffffffffffffffffffffffffffffffffffff168d7f3a2d70b336733ffa4e257b7f871c733cc1cd2f1874bd1393a004e0ece7e3d55f8d8d8d604051610bfc9392919061366d565b60405180910390a46001965050505050505095945050505050565b610c1f6128e6565b73ffffffffffffffffffffffffffffffffffffffff16610c3d610c9f565b73ffffffffffffffffffffffffffffffffffffffff1614610c93576040517f08c379a0000000000000000000000000000000000000000000000000000000008152600401610c8a906136fe565b60405180910390fd5b610c9d60006128ee565b565b6000603360009054906101000a900473ffffffffffffffffffffffffffffffffffffffff16905090565b600080606980549050905060008060005b83811015610d22578660698281548110610cf757610cf66130bf565b5b906000526020600020015403610d0f57600192508091505b8080610d1a9061311d565b915050610cda565b5081610d63576040517f08c379a0000000000000000000000000000000000000000000000000000000008152600401610d5a9061376a565b60405180910390fd5b6068600087815260200190815260200160002060010160009054906101000a900473ffffffffffffffffffffffffffffffffffffffff1673ffffffffffffffffffffffffffffffffffffffff163373ffffffffffffffffffffffffffffffffffffffff1614610e07576040517f08c379a0000000000000000000000000000000000000000000000000000000008152600401610dfe906137d6565b60405180910390fd5b6068600087815260200190815260200160002060050160009054906101000a900460ff16610e6a576040517f08c379a0000000000000000000000000000000000000000000000000000000008152600401610e6190613842565b60405180910390fd5b6068600087815260200190815260200160002060050160019054906101000a900460ff1615610ece576040517f08c379a0000000000000000000000000000000000000000000000000000000008152600401610ec5906138ae565b60405180910390fd5b8460686000888152602001908152602001600020600201541015610f27576040517f08c379a0000000000000000000000000000000000000000000000000000000008152600401610f1e9061391a565b60405180910390fd5b60006060606560009054906101000a900473ffffffffffffffffffffffffffffffffffffffff1673ffffffffffffffffffffffffffffffffffffffff16606860008a815260200190815260200160002060010160009054906101000a900473ffffffffffffffffffffffffffffffffffffffff1688604051602401610fad92919061393a565b6040516020818303038152906040527fa9059cbb000000000000000000000000000000000000000000000000000000007bffffffffffffffffffffffffffffffffffffffffffffffffffffffff19166020820180517bffffffffffffffffffffffffffffffffffffffffffffffffffffffff83818316178352505050506040516110379190613441565b6000604051808303816000865af19150503d8060008114611074576040519150601f19603f3d011682016040523d82523d6000602084013e611079565b606091505b508092508193505050816110c2576040517f08c379a00000000000000000000000000000000000000000000000000000000081526004016110b9906139af565b60405180910390fd5b808060200190518101906110d691906134f0565b611115576040517f08c379a000000000000000000000000000000000000000000000000000000000815260040161110c90613a41565b60405180910390fd5b600087606860008b8152602001908152602001600020600201546111399190613a61565b9050600081111561132f57606560009054906101000a900473ffffffffffffffffffffffffffffffffffffffff1673ffffffffffffffffffffffffffffffffffffffff16606860008b815260200190815260200160002060000160009054906101000a900473ffffffffffffffffffffffffffffffffffffffff16826040516024016111c692919061393a565b6040516020818303038152906040527fa9059cbb000000000000000000000000000000000000000000000000000000007bffffffffffffffffffffffffffffffffffffffffffffffffffffffff19166020820180517bffffffffffffffffffffffffffffffffffffffffffffffffffffffff83818316178352505050506040516112509190613441565b6000604051808303816000865af19150503d806000811461128d576040519150601f19603f3d011682016040523d82523d6000602084013e611292565b606091505b508093508194505050826112db576040517f08c379a00000000000000000000000000000000000000000000000000000000081526004016112d2906139af565b60405180910390fd5b818060200190518101906112ef91906134f0565b61132e576040517f08c379a000000000000000000000000000000000000000000000000000000000815260040161132590613a41565b60405180910390fd5b5b600080606860008c81526020019081526020016000206003018054806020026020016040519081016040528092919081815260200182805480156113c857602002820191906000526020600020905b8160009054906101000a900473ffffffffffffffffffffffffffffffffffffffff1673ffffffffffffffffffffffffffffffffffffffff168152602001906001019080831161137e575b505050505090506000606860008d815260200190815260200160002060040180548060200260200160405190810160405280929190818152602001828054801561143157602002820191906000526020600020905b81548152602001906001019080831161141d575b5050505050905060008251905060005b818110156117825783818151811061145c5761145b6130bf565b5b602002602001015173ffffffffffffffffffffffffffffffffffffffff166040516024016040516020818303038152906040527f07546172000000000000000000000000000000000000000000000000000000007bffffffffffffffffffffffffffffffffffffffffffffffffffffffff19166020820180517bffffffffffffffffffffffffffffffffffffffffffffffffffffffff838183161783525050505060405161150a9190613441565b600060405180830381855afa9150503d8060008114611545576040519150601f19603f3d011682016040523d82523d6000602084013e61154a565b606091505b50809850819950505087611593576040517f08c379a000000000000000000000000000000000000000000000000000000000815260040161158a90613ae1565b60405180910390fd5b868060200190518101906115a79190613b3f565b94508381815181106115bc576115bb6130bf565b5b602002602001015173ffffffffffffffffffffffffffffffffffffffff16858483815181106115ee576115ed6130bf565b5b602002602001015160405160240161160792919061393a565b6040516020818303038152906040527fa9059cbb000000000000000000000000000000000000000000000000000000007bffffffffffffffffffffffffffffffffffffffffffffffffffffffff19166020820180517bffffffffffffffffffffffffffffffffffffffffffffffffffffffff83818316178352505050506040516116919190613441565b6000604051808303816000865af19150503d80600081146116ce576040519150601f19603f3d011682016040523d82523d6000602084013e6116d3565b606091505b5080985081995050508761171c576040517f08c379a0000000000000000000000000000000000000000000000000000000008152600401611713906139af565b60405180910390fd5b8680602001905181019061173091906134f0565b61176f576040517f08c379a000000000000000000000000000000000000000000000000000000000815260040161176690613a41565b60405180910390fd5b808061177a9061311d565b915050611441565b50606860008e815260200190815260200160002060010160009054906101000a900473ffffffffffffffffffffffffffffffffffffffff1673ffffffffffffffffffffffffffffffffffffffff16606860008f815260200190815260200160002060000160009054906101000a900473ffffffffffffffffffffffffffffffffffffffff1673ffffffffffffffffffffffffffffffffffffffff168e7f44b417d35556b6916cd7103ec4c060340e7f5e59b2f886680558e1c6d6366ef48f8988886040516118539493929190613b6c565b60405180910390a460008890505b60018b61186e9190613a61565b8110156118d55760696001826118849190613bbf565b81548110611895576118946130bf565b5b9060005260206000200154606982815481106118b4576118b36130bf565b5b906000526020600020018190555080806118cd9061311d565b915050611861565b50606960018b6118e59190613a61565b815481106118f6576118f56130bf565b5b9060005260206000200160009055606980548061191657611915613c15565b5b60019003818190600052602060002001600090559055606860008e8152602001908152602001600020600080820160006101000a81549073ffffffffffffffffffffffffffffffffffffffff02191690556001820160006101000a81549073ffffffffffffffffffffffffffffffffffffffff021916905560028201600090556003820160006119a69190612abf565b6004820160006119b69190612ae0565b6005820160006101000a81549060ff02191690556005820160016101000a81549060ff0219169055505060019a505050505050505050505092915050565b60608060005b606780549050811015611b56578373ffffffffffffffffffffffffffffffffffffffff1660678281548110611a3257611a316130bf565b5b9060005260206000200160009054906101000a900473ffffffffffffffffffffffffffffffffffffffff1673ffffffffffffffffffffffffffffffffffffffff1603611b4357606660008573ffffffffffffffffffffffffffffffffffffffff1673ffffffffffffffffffffffffffffffffffffffff168152602001908152602001600020805480602002602001604051908101604052809291908181526020018280548015611b3757602002820191906000526020600020905b8160009054906101000a900473ffffffffffffffffffffffffffffffffffffffff1673ffffffffffffffffffffffffffffffffffffffff1681526020019060010190808311611aed575b50505050509150611b56565b8080611b4e9061311d565b9150506119fa565b5080915050919050565b6000611b6b82611d8f565b9050919050565b600060019054906101000a900460ff16611b9a5760008054906101000a900460ff1615611ba3565b611ba26129b4565b5b611be2576040517f08c379a0000000000000000000000000000000000000000000000000000000008152600401611bd990613cb6565b60405180910390fd5b60008060019054906101000a900460ff161590508015611c32576001600060016101000a81548160ff02191690831515021790555060016000806101000a81548160ff0219169083151502179055505b81606560006101000a81548173ffffffffffffffffffffffffffffffffffffffff021916908373ffffffffffffffffffffffffffffffffffffffff1602179055508015611c945760008060016101000a81548160ff0219169083151502179055505b5050565b611ca06128e6565b73ffffffffffffffffffffffffffffffffffffffff16611cbe610c9f565b73ffffffffffffffffffffffffffffffffffffffff1614611d14576040517f08c379a0000000000000000000000000000000000000000000000000000000008152600401611d0b906136fe565b60405180910390fd5b600073ffffffffffffffffffffffffffffffffffffffff168173ffffffffffffffffffffffffffffffffffffffff1603611d83576040517f08c379a0000000000000000000000000000000000000000000000000000000008152600401611d7a90613d48565b60405180910390fd5b611d8c816128ee565b50565b6000806000905060005b606780549050811015611e2f573373ffffffffffffffffffffffffffffffffffffffff1660678281548110611dd157611dd06130bf565b5b9060005260206000200160009054906101000a900473ffffffffffffffffffffffffffffffffffffffff1673ffffffffffffffffffffffffffffffffffffffff1603611e1c57600191505b8080611e279061311d565b915050611d99565b508015611ffd576000606660003373ffffffffffffffffffffffffffffffffffffffff1673ffffffffffffffffffffffffffffffffffffffff1681526020019081526020016000208054905090506000805b82811015611f4f578573ffffffffffffffffffffffffffffffffffffffff16606660003373ffffffffffffffffffffffffffffffffffffffff1673ffffffffffffffffffffffffffffffffffffffff1681526020019081526020016000208281548110611ef157611ef06130bf565b5b9060005260206000200160009054906101000a900473ffffffffffffffffffffffffffffffffffffffff1673ffffffffffffffffffffffffffffffffffffffff1603611f3c57600191505b8080611f479061311d565b915050611e81565b5080611ff657606660003373ffffffffffffffffffffffffffffffffffffffff1673ffffffffffffffffffffffffffffffffffffffff168152602001908152602001600020859080600181540180825580915050600190039060005260206000200160009091909190916101000a81548173ffffffffffffffffffffffffffffffffffffffff021916908373ffffffffffffffffffffffffffffffffffffffff1602179055505b5050612101565b6067339080600181540180825580915050600190039060005260206000200160009091909190916101000a81548173ffffffffffffffffffffffffffffffffffffffff021916908373ffffffffffffffffffffffffffffffffffffffff160217905550606660003373ffffffffffffffffffffffffffffffffffffffff1673ffffffffffffffffffffffffffffffffffffffff168152602001908152602001600020839080600181540180825580915050600190039060005260206000200160009091909190916101000a81548173ffffffffffffffffffffffffffffffffffffffff021916908373ffffffffffffffffffffffffffffffffffffffff1602179055505b6001915050919050565b60008060009050600080606780549050905060005b818110156121b4573373ffffffffffffffffffffffffffffffffffffffff1660678281548110612153576121526130bf565b5b9060005260206000200160009054906101000a900473ffffffffffffffffffffffffffffffffffffffff1673ffffffffffffffffffffffffffffffffffffffff16036121a157600193508092505b80806121ac9061311d565b915050612120565b50826121f5576040517f08c379a00000000000000000000000000000000000000000000000000000000081526004016121ec90613db4565b60405180910390fd5b6000806000606660003373ffffffffffffffffffffffffffffffffffffffff1673ffffffffffffffffffffffffffffffffffffffff16815260200190815260200160002080549050905060005b81811015612313578873ffffffffffffffffffffffffffffffffffffffff16606660003373ffffffffffffffffffffffffffffffffffffffff1673ffffffffffffffffffffffffffffffffffffffff16815260200190815260200160002082815481106122b2576122b16130bf565b5b9060005260206000200160009054906101000a900473ffffffffffffffffffffffffffffffffffffffff1673ffffffffffffffffffffffffffffffffffffffff160361230057600193508092505b808061230b9061311d565b915050612242565b5082612354576040517f08c379a000000000000000000000000000000000000000000000000000000000815260040161234b90613e20565b60405180910390fd5b60018111156125bf5760008290505b6001826123709190613a61565b8110156124ab57606660003373ffffffffffffffffffffffffffffffffffffffff1673ffffffffffffffffffffffffffffffffffffffff1681526020019081526020016000206001826123c39190613bbf565b815481106123d4576123d36130bf565b5b9060005260206000200160009054906101000a900473ffffffffffffffffffffffffffffffffffffffff16606660003373ffffffffffffffffffffffffffffffffffffffff1673ffffffffffffffffffffffffffffffffffffffff16815260200190815260200160002082815481106124505761244f6130bf565b5b9060005260206000200160006101000a81548173ffffffffffffffffffffffffffffffffffffffff021916908373ffffffffffffffffffffffffffffffffffffffff16021790555080806124a39061311d565b915050612363565b50606660003373ffffffffffffffffffffffffffffffffffffffff1673ffffffffffffffffffffffffffffffffffffffff1681526020019081526020016000206001826124f89190613a61565b81548110612509576125086130bf565b5b9060005260206000200160006101000a81549073ffffffffffffffffffffffffffffffffffffffff0219169055606660003373ffffffffffffffffffffffffffffffffffffffff1673ffffffffffffffffffffffffffffffffffffffff16815260200190815260200160002080548061258557612584613c15565b5b6001900381819060005260206000200160006101000a81549073ffffffffffffffffffffffffffffffffffffffff02191690559055612774565b60008590505b6001856125d29190613a61565b8110156126935760676001826125e89190613bbf565b815481106125f9576125f86130bf565b5b9060005260206000200160009054906101000a900473ffffffffffffffffffffffffffffffffffffffff1660678281548110612638576126376130bf565b5b9060005260206000200160006101000a81548173ffffffffffffffffffffffffffffffffffffffff021916908373ffffffffffffffffffffffffffffffffffffffff160217905550808061268b9061311d565b9150506125c5565b5060676001856126a39190613a61565b815481106126b4576126b36130bf565b5b9060005260206000200160006101000a81549073ffffffffffffffffffffffffffffffffffffffff021916905560678054806126f3576126f2613c15565b5b6001900381819060005260206000200160006101000a81549073ffffffffffffffffffffffffffffffffffffffff02191690559055606660003373ffffffffffffffffffffffffffffffffffffffff1673ffffffffffffffffffffffffffffffffffffffff16815260200190815260200160002060006127739190612abf565b5b60019650505050505050919050565b60008060008573ffffffffffffffffffffffffffffffffffffffff1685856040516024016127b2929190613e40565b6040516020818303038152906040527fdd62ed3e000000000000000000000000000000000000000000000000000000007bffffffffffffffffffffffffffffffffffffffffffffffffffffffff19166020820180517bffffffffffffffffffffffffffffffffffffffffffffffffffffffff838183161783525050505060405161283c9190613441565b600060405180830381855afa9150503d8060008114612877576040519150601f19603f3d011682016040523d82523d6000602084013e61287c565b606091505b5091509150816128c1576040517f08c379a00000000000000000000000000000000000000000000000000000000081526004016128b890613eb5565b60405180910390fd5b6000818060200190518101906128d79190613eea565b90508093505050509392505050565b600033905090565b6000603360009054906101000a900473ffffffffffffffffffffffffffffffffffffffff16905081603360006101000a81548173ffffffffffffffffffffffffffffffffffffffff021916908373ffffffffffffffffffffffffffffffffffffffff1602179055508173ffffffffffffffffffffffffffffffffffffffff168173ffffffffffffffffffffffffffffffffffffffff167f8be0079c531659141344cd1fd0a4f28419497f9722a3daafe3b4186f6b6457e060405160405180910390a35050565b60006129bf306129c5565b15905090565b6000808273ffffffffffffffffffffffffffffffffffffffff163b119050919050565b828054828255906000526020600020908101928215612a61579160200282015b82811115612a605782518260006101000a81548173ffffffffffffffffffffffffffffffffffffffff021916908373ffffffffffffffffffffffffffffffffffffffff16021790555091602001919060010190612a08565b5b509050612a6e9190612b01565b5090565b828054828255906000526020600020908101928215612aae579160200282015b82811115612aad578251825591602001919060010190612a92565b5b509050612abb9190612b01565b5090565b5080546000825590600052602060002090810190612add9190612b01565b50565b5080546000825590600052602060002090810190612afe9190612b01565b50565b5b80821115612b1a576000816000905550600101612b02565b5090565b6000604051905090565b600080fd5b600080fd5b6000819050919050565b612b4581612b32565b8114612b5057600080fd5b50565b600081359050612b6281612b3c565b92915050565b600073ffffffffffffffffffffffffffffffffffffffff82169050919050565b6000612b9382612b68565b9050919050565b612ba381612b88565b8114612bae57600080fd5b50565b600081359050612bc081612b9a565b92915050565b600080fd5b6000601f19601f8301169050919050565b7f4e487b7100000000000000000000000000000000000000000000000000000000600052604160045260246000fd5b612c1482612bcb565b810181811067ffffffffffffffff82111715612c3357612c32612bdc565b5b80604052505050565b6000612c46612b1e565b9050612c528282612c0b565b919050565b600067ffffffffffffffff821115612c7257612c71612bdc565b5b602082029050602081019050919050565b600080fd5b6000612c9b612c9684612c57565b612c3c565b90508083825260208201905060208402830185811115612cbe57612cbd612c83565b5b835b81811015612ce75780612cd38882612bb1565b845260208401935050602081019050612cc0565b5050509392505050565b600082601f830112612d0657612d05612bc6565b5b8135612d16848260208601612c88565b91505092915050565b600067ffffffffffffffff821115612d3a57612d39612bdc565b5b602082029050602081019050919050565b6000612d5e612d5984612d1f565b612c3c565b90508083825260208201905060208402830185811115612d8157612d80612c83565b5b835b81811015612daa5780612d968882612b53565b845260208401935050602081019050612d83565b5050509392505050565b600082601f830112612dc957612dc8612bc6565b5b8135612dd9848260208601612d4b565b91505092915050565b600080600080600060a08688031215612dfe57612dfd612b28565b5b6000612e0c88828901612b53565b9550506020612e1d88828901612bb1565b9450506040612e2e88828901612b53565b935050606086013567ffffffffffffffff811115612e4f57612e4e612b2d565b5b612e5b88828901612cf1565b925050608086013567ffffffffffffffff811115612e7c57612e7b612b2d565b5b612e8888828901612db4565b9150509295509295909350565b60008115159050919050565b612eaa81612e95565b82525050565b6000602082019050612ec56000830184612ea1565b92915050565b612ed481612b88565b82525050565b6000602082019050612eef6000830184612ecb565b92915050565b60008060408385031215612f0c57612f0b612b28565b5b6000612f1a85828601612b53565b9250506020612f2b85828601612b53565b9150509250929050565b600060208284031215612f4b57612f4a612b28565b5b6000612f5984828501612bb1565b91505092915050565b600081519050919050565b600082825260208201905092915050565b6000819050602082019050919050565b612f9781612b88565b82525050565b6000612fa98383612f8e565b60208301905092915050565b6000602082019050919050565b6000612fcd82612f62565b612fd78185612f6d565b9350612fe283612f7e565b8060005b83811015613013578151612ffa8882612f9d565b975061300583612fb5565b925050600181019050612fe6565b5085935050505092915050565b6000602082019050818103600083015261303a8184612fc2565b905092915050565b600082825260208201905092915050565b7f696e76616c696420746f6b656e20696e666f726d6174696f6e00000000000000600082015250565b6000613089601983613042565b915061309482613053565b602082019050919050565b600060208201905081810360008301526130b88161307c565b9050919050565b7f4e487b7100000000000000000000000000000000000000000000000000000000600052603260045260246000fd5b7f4e487b7100000000000000000000000000000000000000000000000000000000600052601160045260246000fd5b600061312882612b32565b91507fffffffffffffffffffffffffffffffffffffffffffffffffffffffffffffffff820361315a576131596130ee565b5b600182019050919050565b7f7573657227732077686974656c69737420646f6573206e6f7420657869737400600082015250565b600061319b601f83613042565b91506131a682613165565b602082019050919050565b600060208201905081810360008301526131ca8161318e565b9050919050565b7f6167656e6379206973206e6f7420617574686f72697a65640000000000000000600082015250565b6000613207601883613042565b9150613212826131d1565b602082019050919050565b60006020820190508181036000830152613236816131fa565b9050919050565b7f7461736b20696420616c72656164792065786973747300000000000000000000600082015250565b6000613273601683613042565b915061327e8261323d565b602082019050919050565b600060208201905081810360008301526132a281613266565b9050919050565b7f776c617420696e73756666696369656e742062616c616e636500000000000000600082015250565b60006132df601983613042565b91506132ea826132a9565b602082019050919050565b6000602082019050818103600083015261330e816132d2565b9050919050565b7f6461746120746f6b656e20696e73756666696369656e742062616c616e636500600082015250565b600061334b601f83613042565b915061335682613315565b602082019050919050565b6000602082019050818103600083015261337a8161333e565b9050919050565b61338a81612b32565b82525050565b60006060820190506133a56000830186612ecb565b6133b26020830185612ecb565b6133bf6040830184613381565b949350505050565b600081519050919050565b600081905092915050565b60005b838110156133fb5780820151818401526020810190506133e0565b8381111561340a576000848401525b50505050565b600061341b826133c7565b61342581856133d2565b93506134358185602086016133dd565b80840191505092915050565b600061344d8284613410565b915081905092915050565b7f63616c6c207472616e7366657246726f6d206661696c65640000000000000000600082015250565b600061348e601883613042565b915061349982613458565b602082019050919050565b600060208201905081810360008301526134bd81613481565b9050919050565b6134cd81612e95565b81146134d857600080fd5b50565b6000815190506134ea816134c4565b92915050565b60006020828403121561350657613505612b28565b5b6000613514848285016134db565b91505092915050565b7f5468652072657475726e206f66207472616e7366657266726f6d20697320666160008201527f696c757265000000000000000000000000000000000000000000000000000000602082015250565b6000613579602583613042565b91506135848261351d565b604082019050919050565b600060208201905081810360008301526135a88161356c565b9050919050565b600081519050919050565b600082825260208201905092915050565b6000819050602082019050919050565b6135e481612b32565b82525050565b60006135f683836135db565b60208301905092915050565b6000602082019050919050565b600061361a826135af565b61362481856135ba565b935061362f836135cb565b8060005b8381101561366057815161364788826135ea565b975061365283613602565b925050600181019050613633565b5085935050505092915050565b60006060820190506136826000830186613381565b81810360208301526136948185612fc2565b905081810360408301526136a8818461360f565b9050949350505050565b7f4f776e61626c653a2063616c6c6572206973206e6f7420746865206f776e6572600082015250565b60006136e8602083613042565b91506136f3826136b2565b602082019050919050565b60006020820190508181036000830152613717816136db565b9050919050565b7f696e76616c6964207461736b2069640000000000000000000000000000000000600082015250565b6000613754600f83613042565b915061375f8261371e565b602082019050919050565b6000602082019050818103600083015261378381613747565b9050919050565b7f4f6e6c792075736572206167656e742063616e20646f20746869730000000000600082015250565b60006137c0601b83613042565b91506137cb8261378a565b602082019050919050565b600060208201905081810360008301526137ef816137b3565b9050919050565b7f707265706179206e6f7420636f6d706c65746564000000000000000000000000600082015250565b600061382c601483613042565b9150613837826137f6565b602082019050919050565b6000602082019050818103600083015261385b8161381f565b9050919050565b7f52657065617420736574746c6500000000000000000000000000000000000000600082015250565b6000613898600d83613042565b91506138a382613862565b602082019050919050565b600060208201905081810360008301526138c78161388b565b9050919050565b7f6d6f7265207468616e2070726570616964206c61740000000000000000000000600082015250565b6000613904601583613042565b915061390f826138ce565b602082019050919050565b60006020820190508181036000830152613933816138f7565b9050919050565b600060408201905061394f6000830185612ecb565b61395c6020830184613381565b9392505050565b7f63616c6c207472616e73666572206661696c6564000000000000000000000000600082015250565b6000613999601483613042565b91506139a482613963565b602082019050919050565b600060208201905081810360008301526139c88161398c565b9050919050565b7f5468652072657475726e206f66207472616e73666572206973206661696c757260008201527f6500000000000000000000000000000000000000000000000000000000000000602082015250565b6000613a2b602183613042565b9150613a36826139cf565b604082019050919050565b60006020820190508181036000830152613a5a81613a1e565b9050919050565b6000613a6c82612b32565b9150613a7783612b32565b925082821015613a8a57613a896130ee565b5b828203905092915050565b7f63616c6c206d696e746572206661696c65640000000000000000000000000000600082015250565b6000613acb601283613042565b9150613ad682613a95565b602082019050919050565b60006020820190508181036000830152613afa81613abe565b9050919050565b6000613b0c82612b68565b9050919050565b613b1c81613b01565b8114613b2757600080fd5b50565b600081519050613b3981613b13565b92915050565b600060208284031215613b5557613b54612b28565b5b6000613b6384828501613b2a565b91505092915050565b6000608082019050613b816000830187613381565b613b8e6020830186613381565b8181036040830152613ba08185612fc2565b90508181036060830152613bb4818461360f565b905095945050505050565b6000613bca82612b32565b9150613bd583612b32565b9250827fffffffffffffffffffffffffffffffffffffffffffffffffffffffffffffffff03821115613c0a57613c096130ee565b5b828201905092915050565b7f4e487b7100000000000000000000000000000000000000000000000000000000600052603160045260246000fd5b7f496e697469616c697a61626c653a20636f6e747261637420697320616c72656160008201527f647920696e697469616c697a6564000000000000000000000000000000000000602082015250565b6000613ca0602e83613042565b9150613cab82613c44565b604082019050919050565b60006020820190508181036000830152613ccf81613c93565b9050919050565b7f4f776e61626c653a206e6577206f776e657220697320746865207a65726f206160008201527f6464726573730000000000000000000000000000000000000000000000000000602082015250565b6000613d32602683613042565b9150613d3d82613cd6565b604082019050919050565b60006020820190508181036000830152613d6181613d25565b9050919050565b7f696e76616c696420757365720000000000000000000000000000000000000000600082015250565b6000613d9e600c83613042565b9150613da982613d68565b602082019050919050565b60006020820190508181036000830152613dcd81613d91565b9050919050565b7f696e76616c6964206167656e6379000000000000000000000000000000000000600082015250565b6000613e0a600e83613042565b9150613e1582613dd4565b602082019050919050565b60006020820190508181036000830152613e3981613dfd565b9050919050565b6000604082019050613e556000830185612ecb565b613e626020830184612ecb565b9392505050565b7f73746174696363616c6c20616c6c6f77616e6365206661696c65640000000000600082015250565b6000613e9f601b83613042565b9150613eaa82613e69565b602082019050919050565b60006020820190508181036000830152613ece81613e92565b9050919050565b600081519050613ee481612b3c565b92915050565b600060208284031215613f0057613eff612b28565b5b6000613f0e84828501613ed5565b9150509291505056fea264697066735822122043a2d87d890126a432097b72c27dba54fb799f91713f24e7186bd99d19ca28cb64736f6c634300080d0033",
  "immutableReferences": {},
  "source": "// Copyright metis network contributors\n// SPDX-License-Identifier: (Apache-2.0 AND CC-BY-4.0)\n// Code is Apache-2.0 and docs are CC-BY-4.0\n\npragma solidity ^0.8.0;\n\nimport \"@openzeppelin/contracts-upgradeable/proxy/utils/Initializable.sol\";\nimport \"@openzeppelin/contracts-upgradeable/access/OwnableUpgradeable.sol\";\n\ncontract MetisPay is Initializable,OwnableUpgradeable {\n\n    // lat wrapper contarct address\n    address private _metisLat;\n\n    /**\n     * @dev initialize\n     *      Called on contract deployment. Could not be called with zero address parameters.\n     * @param metisLat refers to the address of a deployed metisLat contract.\n     */\n    function initialize(address metisLat) public initializer {\n        _metisLat = metisLat;\n    }\n\n    // whitelist\n    mapping(address => address[]) private _user2Agency;\n    address[] private _users;\n\n    function authorize(address userAgency) public returns (bool success){\n        return addWhitelist(userAgency);\n    }\n\n    /**\n     * @dev whitelist\n     *      \n     *      \n     * @param userAddress refers to an user address.\n     * @return whitelist quota.\n     */\n    function whitelist(address userAddress) public view returns (address[] memory){\n        address[] memory result;\n\n        for (uint256 i = 0; i < _users.length; i++){\n            if (_users[i] == userAddress){\n                result =  _user2Agency[userAddress];\n                break;\n            }\n        }\n\n        return result;\n    }\n\n    /**\n     * @dev Add an address to the whitelist\n     *      \n     *      \n     * @param userAgency Users to be added to the user whitelist.\n     * @return success true if the addition is successful, false if it fails.\n     */\n    function addWhitelist(address userAgency) public returns (bool success){\n        bool find = false;\n        for (uint256 i = 0; i <  _users.length; i++){\n            if (_users[i] == msg.sender){\n                find = true;\n            }\n        }\n\n        if(find){\n            uint256 agencyLength = _user2Agency[msg.sender].length;\n            bool existAgency = false;\n            for (uint256 i = 0; i < agencyLength; i++){\n                if (_user2Agency[msg.sender][i] == userAgency){\n                    existAgency = true;\n                }\n            }\n\n            if(!existAgency){\n                _user2Agency[msg.sender].push(userAgency);\n            }\n        } else {\n            _users.push(msg.sender);\n            _user2Agency[msg.sender].push(userAgency);\n        }\n\n        return true;\n    }\n\n    /**\n     * @dev Remove an address from the whitelist\n     *      \n     *      \n     * @param userAgency the address in the whitelist to be removed.\n     * @return success true true if the deletion is successful, false if the deletion fails.\n     */\n    function deleteWhitelist(address userAgency) public returns (bool success){\n        bool find = false;\n        uint256 userIndex = 0;\n        uint256 userLength = _users.length;\n        for (uint256 i = 0; i < userLength; i++){\n            if (_users[i] == msg.sender){\n                find = true;\n                userIndex = i;\n            }\n        }\n        require(find, \"invalid user\");\n\n        bool existAgency = false;\n        uint256 agencyIndex = 0;\n        uint256 agencyLength = _user2Agency[msg.sender].length;\n        for(uint256 i = 0; i < agencyLength; i++){\n            if (_user2Agency[msg.sender][i] == userAgency){\n                existAgency = true;\n                agencyIndex = i;\n            }\n        }\n        require(existAgency, \"invalid agency\");\n\n        if(agencyLength > 1){\n            for(uint256 i = agencyIndex; i < agencyLength - 1; i++){\n                _user2Agency[msg.sender][i] = _user2Agency[msg.sender][i+1];\n            }\n\n            delete _user2Agency[msg.sender][agencyLength-1];\n            _user2Agency[msg.sender].pop();\n        } else {\n            for(uint256 i = userIndex; i < userLength - 1; i++){\n                _users[i] = _users[i+1];\n            }\n\n            delete _users[userLength-1];\n            _users.pop();\n\n            delete _user2Agency[msg.sender];\n        }\n\n        return true;\n    }\n\n    // task information\n    struct TaskInfo {\n        address userAddress;\n        address agencyAddress;\n        uint256 fee;\n        address[] tokenAddressList;\n        uint256[] tokenValueList;\n        bool prepay;\n        bool settle;\n    }\n\n    mapping(uint256 => TaskInfo) private _taskInfo;\n    uint256[] private _taskList;\n\n    event PrepayEvent(\n        uint256 indexed taskId,\n        address indexed user,\n        address indexed userAgency,\n        uint256 fee,\n        address[] tokenAddressList,\n        uint256[] tokenValueList\n    );\n\n    event SettleEvent(\n        uint256 indexed taskId,\n        address indexed user,\n        address indexed userAgency,\n        uint256 Agencyfee,\n        uint256 refund,\n        address[] tokenAddressList,\n        uint256[] tokenValueList\n    );\n\n    function allowance(address tokenAddress, address owner, address spender) internal view returns (uint256 remaining) {\n        (bool success, bytes memory data) = tokenAddress.staticcall(abi.encodeWithSignature(\"allowance(address,address)\", owner, spender));\n        require(success, \"staticcall allowance failed\");\n\n        uint256 callerUintResult = abi.decode(data,(uint256));\n        return callerUintResult;\n    }\n\n    // datatoken usage fee\n    function prepay(uint256 taskId, address user, uint256 fee, address[] memory tokenAddressList, uint256[] memory tokenValueList)  public returns (bool success){\n        // check One-to-one correspondence between the address list and the value list\n        require(tokenAddressList.length == tokenValueList.length, \"invalid token information\");\n\n        // Check the whitelist\n        bool exist = false;\n        uint256 length = _users.length;\n        for (uint256 i = 0; i < length; i++){\n            if (_users[i] == user){\n                exist = true;\n            }\n        }\n        require(exist, \"user's whitelist does not exist\");\n\n        exist = false;\n        length = _user2Agency[user].length;\n        for (uint256 i = 0; i < length; i++){\n            if (_user2Agency[user][i] == msg.sender){\n                exist = true;\n            }\n        }\n        require(exist, \"agency is not authorized\");\n\n        // Check for duplicate payments\n        exist = false;\n        length = _taskList.length;\n        for (uint256 i = 0; i < length; i++){\n            if (_taskList[i] == taskId){\n                exist = true;\n            }\n        }\n        require(!exist, \"task id already exists\");\n\n        // verify uer approve to MetisPay lat amount\n        uint256 value = allowance(_metisLat, user, address(this));\n        require(value >= fee, 'wlat insufficient balance');\n\n        // verify user approve to MetisPay data token amount\n        length = tokenAddressList.length;\n        for (uint256 i = 0; i < length; i++){\n            value = allowance(tokenAddressList[i], user, address(this));\n            require(value >= fee, 'data token insufficient balance');\n        }\n\n        // transferFrom lat from user to MetisPay\n        bool transferFromSuccess = false;\n        bytes memory transferFromData;\n        bool transferFromResult = false;\n        (transferFromSuccess, transferFromData) = _metisLat.call(abi.encodeWithSignature(\n            \"transferFrom(address,address,uint256)\", user, address(this), fee));\n        require(transferFromSuccess, \"call transferFrom failed\");\n\n        transferFromResult =  abi.decode(transferFromData,(bool));\n        require(transferFromResult, \"The return of transferfrom is failure\");\n\n        // transferFrom data token from user to MetisPay\n        for (uint256 i = 0; i < length; i++){\n            (transferFromSuccess, transferFromData) = tokenAddressList[i].call(\n                abi.encodeWithSignature(\"transferFrom(address,address,uint256)\", user, address(this), tokenValueList[i])\n            );\n            require(transferFromSuccess, \"call transferFrom failed\");\n\n            transferFromResult =  abi.decode(transferFromData,(bool));\n            require(transferFromResult, \"The return of transferfrom is failure\");\n        }\n\n        // create task information\n        _taskInfo[taskId] = TaskInfo({\n            userAddress: user,\n            agencyAddress: msg.sender,\n            fee: fee,\n            tokenAddressList: tokenAddressList,\n            tokenValueList: tokenValueList,\n            prepay: true,\n            settle: false\n        });\n\n        _taskList.push(taskId);\n\n        emit PrepayEvent(\n            taskId,\n            user,\n            msg.sender,\n            fee,\n            tokenAddressList,\n            tokenValueList\n        );\n\n        return true;\n    }\n\n    function settle(uint256 taskId, uint256 fee)  public returns (bool success){\n        uint256 taskLength = _taskList.length;\n        bool find =  false;\n        uint256 taskIndex = 0;\n        for (uint256 i = 0; i < taskLength; i++){\n            if (_taskList[i] == taskId){\n                find = true;\n                taskIndex = i;\n            }\n        }\n        \n        require(find, \"invalid task id\");\n        require(msg.sender == _taskInfo[taskId].agencyAddress, 'Only user agent can do this');\n        require(_taskInfo[taskId].prepay, \"prepay not completed\");\n        require(!_taskInfo[taskId].settle, \"Repeat settle\");\n        require(_taskInfo[taskId].fee >= fee, \"more than prepaid lat\");\n\n        // transfer lat fee from MetisPay to agency\n        bool transferSuccess = false;\n        bytes memory transferData;\n        (transferSuccess, transferData) = _metisLat.call(abi.encodeWithSignature(\n            \"transfer(address,uint256)\", _taskInfo[taskId].agencyAddress, fee));\n    \n        require(transferSuccess, \"call transfer failed\");\n        require(abi.decode(transferData,(bool)), \"The return of transfer is failure\");\n\n\n        // transfer lat fee from MetisPay to user\n        uint256 refundAmount =  _taskInfo[taskId].fee-fee;\n        if(refundAmount > 0){\n            (transferSuccess, transferData) = _metisLat.call(abi.encodeWithSignature(\n                \"transfer(address,uint256)\", _taskInfo[taskId].userAddress, refundAmount));\n            require(transferSuccess, \"call transfer failed\");\n            require( abi.decode(transferData,(bool)), \"The return of transfer is failure\");\n        }\n\n        // transfer data token from MetisPay to minter\n        address oneMinter;\n        address [] memory tokenAddressList = _taskInfo[taskId].tokenAddressList;\n        uint256 [] memory tokenValueList =  _taskInfo[taskId].tokenValueList;\n        uint256 length = tokenAddressList.length;\n        for (uint256 i = 0; i < length; i++){\n            (transferSuccess, transferData) =  tokenAddressList[i].staticcall(abi.encodeWithSignature(\"minter()\"));\n            require(transferSuccess, \"call minter failed\");\n\n            oneMinter = abi.decode(transferData,(address));\n\n            (transferSuccess, transferData) = tokenAddressList[i].call(abi.encodeWithSignature(\n                \"transfer(address,uint256)\", oneMinter, tokenValueList[i]));        \n            require(transferSuccess, \"call transfer failed\");\n            require(abi.decode(transferData,(bool)), \"The return of transfer is failure\");\n        }\n\n        emit SettleEvent(\n            taskId,\n            _taskInfo[taskId].userAddress,\n            _taskInfo[taskId].agencyAddress,\n            fee,\n            refundAmount,\n            tokenAddressList,\n            tokenValueList\n        );\n\n        for (uint i = taskIndex; i < taskLength - 1; i++) {\n            _taskList[i] = _taskList[i+1];\n        }\n\n        delete _taskList[taskLength - 1];\n        _taskList.pop();\n\n        delete _taskInfo[taskId];\n\n        return true;\n    }\n}\n",
  "sourcePath": "/home/juzix/jatel/develop/DataToken-Contracts/MetisPay/contracts/MetisPay.sol",
  "compiler": {
    "name": "solc",
    "version": "0.8.13+commit.abaa5c0e.Emscripten.clang"
  },
  "schemaVersion": "3.4.6",
  "updatedAt": "2022-04-19T07:00:46.179Z",
  "networkType": "ethereum",
  "devdoc": {
    "kind": "dev",
    "methods": {
      "addWhitelist(address)": {
        "details": "Add an address to the whitelist            ",
        "params": {
          "userAgency": "Users to be added to the user whitelist."
        },
        "returns": {
          "success": "true if the addition is successful, false if it fails."
        }
      },
      "deleteWhitelist(address)": {
        "details": "Remove an address from the whitelist            ",
        "params": {
          "userAgency": "the address in the whitelist to be removed."
        },
        "returns": {
          "success": "true true if the deletion is successful, false if the deletion fails."
        }
      },
      "initialize(address)": {
        "details": "initialize      Called on contract deployment. Could not be called with zero address parameters.",
        "params": {
          "metisLat": "refers to the address of a deployed metisLat contract."
        }
      },
      "owner()": {
        "details": "Returns the address of the current owner."
      },
      "renounceOwnership()": {
        "details": "Leaves the contract without owner. It will not be possible to call `onlyOwner` functions anymore. Can only be called by the current owner. NOTE: Renouncing ownership will leave the contract without an owner, thereby removing any functionality that is only available to the owner."
      },
      "transferOwnership(address)": {
        "details": "Transfers ownership of the contract to a new account (`newOwner`). Can only be called by the current owner."
      },
      "whitelist(address)": {
        "details": "whitelist            ",
        "params": {
          "userAddress": "refers to an user address."
        },
        "returns": {
          "_0": "whitelist quota."
        }
      }
    },
    "version": 1
  },
  "userdoc": {
    "kind": "user",
    "methods": {},
    "version": 1
  }
}